:1010000080610020BD5800008FFB01009158000056
:101010009158000091580000915800000000000015
:10102000000000000000000000000000A5550000C6
:1010300091580000000000005155000001370200E7
:1010400055560000F959010055560000555600004C
:1010500055560000555600005556000055560000E4
:1010600055560000555600005556000055560000D4
:1010700055560000555600005556000055560000C4
:1010800055560000555600005556000055560000B4
:1010900055560000555600005556000055560000A4
:1010A0005556000055560000555600005556000094
:1010B0005556000055560000555600005556000084
:1010C0005556000055560000555600005556000074
:1010D0005556000055560000555600005556000064
:1010E0005556000055560000555600005556000054
:1010F0005556000055560000555600005556000044
:1011000053B94AB9002908BF00281CBF4FF0FF316E
:101110004FF0FF3000F00CB8ADF1080C6DE904CED3
:1011200000F008F8DDF804E0DDE9022304B07047C0
:10113000704700BF2DE9F04F07468C460846099ED0
:1011400015463C461946002B40F0C6808242B2FA52
:1011500082F746D94FB1C7F1200E24FA0EFE00FAED
:1011600007F3BD404EEA030CBC404FEA15481FFA96
:1011700085FEBCFBF8F9220C08FB19C309FB0EFA2B
:1011800042EA03439A4528D9EB1809F1FF3004D20B
:101190009A4502D9A9F102002B44A3EB0A03A4B299
:1011A000B3FBF8F208FB123302FB0EFE44EA0344E1
:1011B000A64514D92C1902F1FF3303D2A64501D953
:1011C000931E2C44A4EB0E0443EA00401EB1FC40E5
:1011D000002334607360BDE8F08F4846DDE71346B6
:1011E000F0E702B9FFDE87BB831A01214FEA154EF3
:1011F000AAB2B3FBFEFC200C0EFB1C330CFB02F866
:1012000040EA0343984563D9EB180CF1FF3004D250
:10121000984502D9ACF102002B44A3EB0803A4B219
:10122000B3FBFEFC0EFB1C330CFB02F244EA03444E
:10123000A2424FD92C190CF1FF3304D2A24202D999
:10124000ACF102032C44A41ABEE7C7F1200C20FA2B
:101250000CF800FA07F324FA0CFCBD404CEA030238
:101260004FEA154EABB2B8FBFEFC110C0EFB1C8016
:101270000CFB03F941EA0040814504FA07F423D945
:1012800028180CF1FF3104D2814502D9ACF10201DA
:101290002844A0EB090092B2B0FBFEFC0EFB1C0040
:1012A0000CFB03F842EA004398450FD9EB180CF108
:1012B000FF3204D2984502D9ACF102022B44A3EBD1
:1012C000080342EA014191E76146E2E76246F6E738
:1012D0006046A2E76346B6E7834205D90EB1C6E988
:1012E00000700021084676E7B3FA83F181B98342A2
:1012F00001D3BA420AD8BC1A60EB030301209C4612
:10130000002E68D0C6E9004C002164E70846F7E7E4
:10131000C1F1200C8B4022FA0CF41C4302FA01F5B7
:1013200000FA01F327FA0CF220FA0CFB4FEA1449F9
:101330001343BBFBF9F81FFA84FE09FB18BB1A0C18
:1013400008FB0EFA42EA0B42924507FA01F73ED932
:10135000A21808F1FF3004D2924502D9A8F1020088
:101360002244A2EB0A029BB2B2FBF9F809FB182255
:1013700008FB0EFE43EA024296452AD9A21808F15C
:10138000FF3304D2964502D9A8F10203224443EA6E
:101390000040A0FB0593A2EB0E029A42CE4698466F
:1013A00002D306D14F4504D2B9EB050E63EB040816
:1013B000013886B1B7EB0E0362EB080707FA0CFCA5
:1013C000CB404CEA0303CF40C6E900379CE74046D8
:1013D000C7E74346DBE73146FDE6000000000000BA
:1013E00073B53F4DD5F85431996811F0010121D101
:1013F00001AA40F6034005F0B7F8044600286CD176
:10140000019B9B681B7893B9BFF35B8F2B4653F806
:10141000CC2FBFF35B8F02F00502BFF35B8F53E865
:10142000001F43E800200028F9D1BFF35B8F01982B
:1014300017F098FA01AA002141F2030005F094F890
:101440000446002849D1019B2648996808220131A9
:101450001EF060FC019817F085FA214601AA41F2BE
:10146000010005F081F80446002836D10198836810
:101470005A7885F86820D9789A7842EA0122A5F846
:101480006A201A7985F86920197ADA7942EA012204
:10149000A5F86C205A799B7942EA0323A5F86E30AF
:1014A00017F060FA214601AA41F2020005F05CF84B
:1014B000044690B9019B0C489968402201311EF006
:1014C00029FC09481EF0DAFC019817F04BFA95F850
:1014D00074305A060AD46FF01204204602B070BD70
:1014E000000000207000002078000020214601AAA2
:1014F00042F2030005F038F804460028EDD1019BC4
:10150000B5489968082201311EF004FC019817F0D3
:1015100029FA214601AA42F2020005F025F8044604
:101520000028DAD1019B9B68B3F80120A5F8FC20C4
:1015300091B221B1DA78A948114622F0E5FB019871
:1015400017F010FA95F8746016F0200600F020816C
:1015500095F894301B0712D501AA002142F21C0015
:1015600005F002F804460028B7D101988368D3F843
:101570000120D3F80530C5E9362317F0F3F995F8C3
:10158000D0309E0623D50DF1020168461EF0E4FE20
:1015900004460028A1D1042142F2240004F088FF6F
:1015A0000646002800F0FB800421083021F0B2FC40
:1015B000BDF800300380BDF802304380224631463A
:1015C00042F2240004F0D0FF0446002885D195F8AB
:1015D000D0305C0610D501AA002142F22A0004F0A6
:1015E000C3FF044600287FF478AF019883685B78D6
:1015F00085F8183117F0B6F9082142F2010004F01D
:1016000057FF0446002800F0CA800821084421F052
:1016100081FC95F8D01011F0400F024640F20223F1
:1016200008BF032388074CBF43F02C0043F00C0095
:101630008B0695F8D13048BF40F0400013F0090FF9
:1016400095F89A3018BF40F4006003F00603CE0707
:1016500048BF40F01000062B08BF40F4C0700021C6
:101660001EF05DFD2146002242F2010004F07CFFE5
:10167000044600287FF431AF95F8743098061ED4E4
:10168000B5F8FC10D9B901AA41F2050004F06CFFCD
:10169000044600287FF421AFB5F8FC3063B9019B04
:1016A0009B685A78997842EA0122A5F8FC209A882A
:1016B0004A48114622F028FB019817F053F90821F7
:1016C00040F6014004F0F4FE0446002867D00821EB
:1016D000084421F01FFC95F8D030D907024673D595
:1016E0003BA1D1E900011EF01AFD2146002240F67F
:1016F000014004F039FF044600287FF4EEAE0146B5
:1017000001AA4FF6014004F02FFF044648BB0198A0
:1017100017F028F9214601AA4FF6024004F024FFF1
:101720000446F0B9019B2E489968022201311EF04F
:10173000F1FA019817F016F995F8B9305B0710D552
:1017400001AA21464FF6034004F00EFF48B9019B61
:1017500024489968012211441EF0DCFA019817F020
:1017600001F91FF065F8044600287FF4B6AE06F0D4
:1017700083FD044600287FF4B0AEEB79002B3FF4E4
:10178000ACAE042118481EF049FC05F0B9F9A4E6F6
:10179000022140F66D4004F08BFE044610B96FF054
:1017A00068049AE60221083021F0B4FB012303709B
:1017B00046702146324640F66D4004F0D5FE0446A0
:1017C00000283FF4C5AE88E608484FF000518AE78C
:1017D0009088000200800020D0000020000100203E
:1017E000B9000020B8000020CC00002010880002C2
:1017F0002DE9F041D0E90B35866A5C193034A642F8
:101800008846174618D81C4DA3FB050118A3D3E939
:101810000023FFF775FCA41B20F07F40C8F80000F0
:1018200013A3D3E90023A4FB0501FFF769FC20F013
:101830007F403860BDE8F0810F4C0DA3D3E9002351
:10184000A6FB0401FFF75CFC05F1300120F07F40AE
:10185000C8F8000006A3D3E90023A1FB0401FFF7A9
:101860004FFC20F07F403860BDE8F081AFF300808E
:101870008D49FD1A0700000000CA9A3B00000000D5
:101880002DE9F04FAB4C8FB094F86A20002800F09F
:10189000398112F0010740F0B88194F82500FF2348
:1018A00000F0030084F8263013F0C2FC94F86A00BC
:1018B00041072DD494F8292094F8353004EB8202A6
:1018C00004EB8303D2F82C80D3F83890B8F1000FE2
:1018D00011D0984841460EF055F898F800305A0655
:1018E00005D5062109F040FC002800F0CA81914886
:1018F00049460EF047F898F8003013F00E0F40F00C
:10190000EE80236A9BB10C2738460FB0BDE8F08FFC
:101910003A4604F16B01C0F3C00013F0F3FDFF2859
:1019200084F82600C6D0384613F09CFCC2E70DF0C0
:10193000BBF88246002800F0AE810DF0C1F8834666
:10194000002800F0AD810EF009FF0546002800F0E8
:10195000A481406F4FF6FF732B8505F11C0300280F
:1019600000F0958105F1680205F164010B9309F01F
:1019700007FCB5F86020704B22F4EF6222F00702FA
:1019800042F4887242F00102A5F8602095F83920EF
:1019900002F03F0262F07F0285F8392095F87A2044
:1019A00022F0070285F87A2095F83C2022F0070201
:1019B00085F83C2095F8D82022F0070285F8D82039
:1019C0004FF01B120026C5E916230622A5F8C020F9
:1019D000C5E912666E67A5F87860EE852E6385F816
:1019E0003B602E65A5F8C460A5F8C860A5F8D06076
:1019F000A5F8CC60A5F8E46085F8E660C5F8086154
:101A0000A5F80C61A5F820610CF086F995F83A214B
:101A1000A5F8386122F0030285F83A2195F87A207A
:101A2000A5F8406122F0180285F87A2095F8662121
:101A300085F8436122F0070285F8662195F8862132
:101A4000C5F844A166F3451285F8862195F8AE21C4
:101A5000A5F8646166F3C302C5E94A0100210020CC
:101A6000C5E94C0185F8AE2185F8D960A5F88461F7
:101A7000C5F8E060A5F8AC61A5F8B8610FF0B4F95D
:101A8000A5F8D2000FF0B6F9D5F8BC112B4AA5F88D
:101A9000D4000A40C5F8BC210FF0B2F995F8C02176
:101AA00060F3020285F8C0210FF0B0F90B9B2362AE
:101AB00095F8C031C5F8C46160F3C503C4E918AB3B
:101AC000C5E97466C5E97266C5E905662E70ED6103
:101AD00085F8C03114F0E0FC002840F0D48094F880
:101AE00024300121C3F342030DF133008DF833306C
:101AF00009F0C0FC20BB236A002B3FF404AF0DF0BB
:101B000017FC00E712F001073FF4FEAE236A5BB159
:101B100093F8202042F0020283F82020236A93F8F1
:101B20002030D8073FF5EFAE0FB0BDE8F04F0DF015
:101B300041BC00BF8C240020480148010000FFF692
:101B400099F80110024640460DF0D8FC5A49E4616C
:101B500031230025A360A0FB010155A3D3E9002395
:101B6000C4E9055525706560E560FFF7C9FAB4F86A
:101B7000689020610AF08AFD0646B9F1000F08D18D
:101B800098F8005005F00F05A5F10105B5FA85F5A7
:101B90006D0994F82400236965F3000010F0010535
:101BA00084F8240036D00020444ADFF814910493CE
:101BB00002250DF13408019305920321CDE90200BD
:101BC000069433460090CDF82080CDF81C902A462C
:101BD0000D950AF08FFC41460DF01CF800288AD1C3
:101BE000384A05924AF2D8320092CDE90300CDE995
:101BF0000100CDF81C90CDF82080069433460122D8
:101C000003210D950AF076FC2EE0002738460FB030
:101C1000BDE8F08F2C4A2D48049303F24713A9FB2B
:101C20000001069402951360912303FB0911244BD4
:101C30000793224B05934FF6FF7309924FF0020969
:101C400003930DF134081AA3D3E90023CDF834909F
:101C5000CDF82080FFF754FA3346CDE900504A46CC
:101C6000284603210AF0F0FB41460CF0D3FF002880
:101C70007FF441AF94F86A3043F0010384F86A308E
:101C800042E6122740E60DF053FB03273CE605F140
:101C90006C00686766E6072736E658460CF016FFC4
:101CA00050460CF007FF07272EE600BFAFF3008079
:101CB0008D49FD1A0700000000CA9A3B71F500002B
:101CC000B9DD0000C1F0000000250020002AE784F3
:101CD00070B590F824308AB0C3F342030D46044631
:101CE00001210DF1230016468DF8233009F0C2FBC7
:101CF0007178024628460DF001FC1D491AA3D3E96C
:101D00000023A0FB0101FFF7FBF923699842054678
:101D100020D21B1A00220192164A0293164BA21AD5
:101D2000A3FB02320221920900230A4409AE099161
:101D300012490591CDE903330321D2B206960093EF
:101D400018460AF049FC31460CF064FF48B9256199
:101D50000AB070BD02D9C21A0023DCE700200AB025
:101D600070BD0C200AB070BD8D49FD1A070000003F
:101D700000CA9A3B8C24002009CB3D8DB9DD0000C0
:101D80002DE9F04FC38D468E1E4490F80E310E445F
:101D900013F007038BB00446B6B240F0A581B0F84B
:101DA000E8909046A6EB09021FFA82FB120400F1AC
:101DB0000D8290F93920002A0F46C0F2358194F83F
:101DC000E43084F8E53094F8842194F8853194F86F
:101DD0000C1184F80D11934206D094F8863103F06B
:101DE0000F03062B00F04882B14BD4F808511A6853
:101DF000944204BF00221A60002D00F0448128683C
:101E0000002800F04081B4F81031B4F82AC04268CC
:101E1000C4F808216345B4F81221B4F8141100F095
:101E20001781B4F828C0EB8318232B710023A5F881
:101E300006C02A8469842B7729460CF04DFE0CF0ED
:101E400055FEA368002BC0F2F780608DB4F81051E6
:101E500010FB0BF080B2B0FBF5F115FB01F39BB268
:101E600098421FFA81FAC0F0CE8005FB110140F2C2
:101E7000E243904889B203FB01F1A1FB00018AA370
:101E8000D3E90023FFF73CF9A8EB0008E18D94F9B2
:101E90003930A9EB0609D1440F444F44E785002BA4
:101EA00040F2E24707FB05F6C0F29581824A83497A
:101EB000834840F61B331BF0C4FC404080F311887C
:101EC0004FF0030002DF0027B3467E4AB4F8143116
:101ED0007D48B4F81211A1853244B2FBF6F2A4F8A1
:101EE000C62042F2107202FB03633044013BB0FB98
:101EF000F6F0B3FBF6F6B4F81031638583B2881DB3
:101F00008342A4F8C260A4F8CE3002DD5B1A063B1F
:101F10009BB2A4F8CA3094F80E311B0744BF0023CB
:101F2000A4F8C4300221012016F066FA0022022132
:101F30008146012009F074F964494FF4F07220469B
:101F400009F0FEF800F1030A5FFA8AFA604B009488
:101F50005246012100200AF057FB30F002030CD05A
:101F6000554A5C49564840F64A331BF06AFC4040EB
:101F700080F311884FF0030002DF4E4EABFB066B7F
:101F800049A3D3E9002330465946FFF7B9F808942E
:101F900020F07F450694504823690493A5FB000177
:101FA000072303FB05114D4B07934D4B0593301A47
:101FB0004FF6FE736BEB010103934FF47A7200232B
:101FC000FFF79EF84346CDE90150009752460121A4
:101FD00000200AF08FFA30F002030CD0364A3D4957
:101FE000374840F664331BF02CFC404080F31188E6
:101FF0004FF0030002DFB9F1000F40F037810020FD
:102000000BB0BDE8F08F1B1A2A4940F2E24003FBF7
:1020100000F0A0FB010124A3D3E90023FFF770F82F
:1020200020F07F40804431E790F8D920002A3FF427
:10203000C6AE80F8D930C6E6E168626823F0004396
:1020400091422CBF88449044A360A8EB0308FCE6AF
:10205000B4F82CC094457FF4E4AE40F2E24C0CFBA3
:1020600003FE42F2107C0CFB01EC0CF1FF3CBCFBCC
:10207000FEFCB4F8C2E01FFA8CFCE6457FF4D1AE5A
:1020800001232B71D8E60C4A16490D4840F69F23D0
:102090001BF0D7FB404080F311884FF0030002DFB4
:1020A0002868B0E6AFF300808D49FD1A07000000F4
:1020B0002025002000CA9A3B58550200D05102004A
:1020C00070510200FF5962027FC3C901B0130020A2
:1020D000CDFF0000385602008D49FD1A75FF000043
:1020E000114701002456020001200CF005FD0746AF
:1020F000002800F0CF80744808F0ECFF0546002867
:1021000000F0C880714B1A68002A00F0BB800CF008
:1021100011FD2B793A68D4F80811516043F003039C
:10212000C4F8087100212B710C236B71E97194F8CC
:102130001C312B72A38DD4F818211E44644BA3FBD1
:102140000232B4F81031A5F80B30920AB4F812310B
:10215000A5F80920A5F80D3094F80E21B4F8143133
:10216000A5F80F300636D4F8C431B6B261F30202D6
:10217000A4F8E86084F80E21A5F81160BBB194F8CA
:102180006621900713D494F8BF21D1070FD4D4F857
:10219000D0219342D4F8C8217FD062B91A7902F0D5
:1021A0000302032A00F08580C4F8C83105E0D4F8A2
:1021B000C821002A68D0D4F8CC311A682A601D6082
:1021C0002B68C4F8CC510BB9C4F8D4516FF0760029
:1021D0000BB0BDE8F08F226CA36C02FB1B33A36431
:1021E00014F0ACF9054694F8D800C0F3C20014F01E
:1021F000A7F9054406FB05F5364B94F81C2105F5B7
:10220000742505F23F25A3FB0535AD0C07FB02F253
:10221000A36C226505FB0AF072080344963A9342C8
:1022200028BF13462564A6EB050B2B4DC4E91123EB
:102230000023C4F8E030A0FB050121A3D3E900236B
:10224000FEF75EFF2249A8EB0008D4F81801A1FBB5
:102250000030800A07FB00F019A3D3E90023A0FB9C
:102260000501FEF74DFF20F07F472EE601220221F7
:10227000104608F0D5FFC2E6002384F88521A4F8B3
:10228000C830B1E51C6042E72B60C4E97155C4F861
:10229000CC5198E76FF06800B2E61968C4F8D01125
:1022A000002A88D11A682A601D602B68C4E972551B
:1022B00089E7DA79032AF5D00A2A7FF475AFF1E7C6
:1022C0008D49FD1A07000000B425002020250020BC
:1022D0005917B7D183DE1B4300CA9A3B00000000A8
:1022E0002DE9F04F0B68D2F800A01B6897B00C46A0
:1022F0000A93037F00F11E01C3F3801305461746BE
:1023000014A806228DF847301DF004FD94F81290B1
:10231000B9F1FF0F12AE5CD032460DF147014846CD
:1023200012F01AFD9DF8473002338DF847302946E8
:10233000032251F82E3B0B9307F1080007F1040B21
:102340001DF0E8FC07F11808042205F12A0158469F
:102350001DF0E0FC052205F13A0140461DF0DAFCD3
:102360004046052109F086F87B7F95F83F1000F084
:102370003F0060F305037B77C1F30403BB77B5F837
:102380003480A7F80E8001281FFA88F201F01F039D
:1023900005D91B3303F01F030B2B00D8FAB90A9B96
:1023A000EC680B9800225A6197F82030012662F3FE
:1023B000000387F8203029462E710CF08DFB206831
:1023C000267121460CF088FB0CF090FB17B0BDE89D
:1023D000F08F062214A930461DF09CFCA7E7236865
:1023E0000020586095F8363095F8370043EA00230E
:1023F0003B829AF8D830490961F3C503698E8AF89F
:10240000D83040F2E24303FB02F80D9114F096F845
:102410000C909AF8D800C0F3C20014F091F80C9A0E
:10242000B749024408FB02F202F5742202F23F228D
:10243000A1FB0232920C7A6295F83120398A40F27F
:10244000E24302FB03F3BB634FEA5803963BBB62D4
:102450002B8FAC4AADF83A3018464244AA4BB2FB37
:10246000F8F2AAF8C62082B242F2107000FB028293
:102470004344013A881DB2FBF8F2B3FBF8F3AAF823
:10248000C2209AB28242AAF8CE2002DD521A063A3F
:1024900092B25946AAF8CA200AF1DC0004221DF0C3
:1024A00039FC4FF480722B7FAA830A9A92F8260097
:1024B000C3F340120F920C9213F0B6F901460622B4
:1024C00005F12B00002900F0E78005F124011DF043
:1024D00021FCB9F1FF0F05F1250000F0E08014A9FF
:1024E00006221DF017FC9DF84730AB7731460622D7
:1024F00005F11F001DF00EFC9AF8D830FA896A86A3
:102500003A8AAA86C3F3C203BDF83A2085F8383068
:10251000EA8650460EF02EF92946B881E8806568B3
:102520000B980CF0D9FABB89EB801B232B710C9B09
:102530002E68002B40F0C0809DF83C302B77294658
:1025400030460CF0C9FA0CF0D1FA97F84500B7F80C
:102550004050B7F84260012100F0070013F0FEFD83
:102560002E4406F5E176311881466848002631236D
:10257000CAF80830A1FB00015FA3D3E90023CAF821
:102580000460CAF80C60FEF7BBFD7B6A0D9AE56833
:1025900020F07F40A8EB030840F2E24303FB025522
:1025A00002213246CAF81000012008F039FE0A9FC5
:1025B00038460DF0A3F9821C554B0097D2B2304635
:1025C00001210AF021F805F2B2450128A5EB090521
:1025D0007DD00A9B93F82430DB0765D450460EF07B
:1025E000C9F8DFF82891A8FB098643A3D3E90023A3
:1025F000834631464046FEF783FDA368CDF818A018
:102600000BF10304A3F13A0B424B0793424B0593A2
:1026100040F2AB130893DAF81030049320F07F47B0
:102620003E480023A7FB000103930723B8EB0000FB
:1026300003FB071166EB01014FF47A720023FEF7EA
:102640005FFD2DA3D3E90023CDE90170A5FB0901AE
:10265000FEF756FDE4B220F07F4000905B46224634
:102660000121002009F046FF30F002030CD02C4A73
:102670002C492D484FF4D6731BF0E3F8404080F30B
:1026800011884FF0030002DF01220221104608F0FA
:10269000C7FD17B0BDE8F08F1DF047FB19E7062214
:1026A00000211DF042FB1EE7002301220093184683
:1026B000114609F0A9FF91E77B7F43F040037B7748
:1026C000584612F041F90123F8832B7737E70CF0D5
:1026D000DFFA0A9B83423FF47CAF114A1349124848
:1026E00040F26D231BF0ADF8404080F311884FF0AD
:1026F000030002DF6DE700BF8D49FD1A07000000EF
:1027000083DE1B43FF5962027FC3C90100CA9A3BA3
:10271000D5460100A5460100114701008D49FD1A6B
:102720004C5702003856020070510200A4570200B4
:102730002DE9F04F8FB0DFF8D8800A900DF1370106
:102740000DF136000CF040FA324F9DF836A09DF89E
:1027500037B009F09BFFD8F80040A4FB07542AA328
:10276000D3E90023814621462846FEF7C9FC0A9B8F
:102770000B90D8F804000693274B0593002622A35C
:10278000D3E90023A0FB0701CDE90766FEF7B8FCFB
:102790000B9B20F07F40CDE90360204823F07F476A
:1027A000A7FB00010723281A03FB071164EB0101B3
:1027B0004FF47A720023FEF7A3FC0096CDE9017076
:1027C0004B465A460321504609F094FE30F002046D
:1027D00016D1134A134800231AF026F868B19DF861
:1027E00037209DF8360000942346032109F00CFFA2
:1027F0006FF073000FB0BDE8F08FD8F80C00F9E768
:102800006FF08B00F6E700BF8D49FD1A070000004E
:10281000F035002000CA9A3BEDA101008D49FD1A58
:10282000447B0B000036002038B50F4D044609F0FC
:102830002DFFA96809F02CFF6968B0FBF4F404448B
:102840000A4807A3D3E90023A1FB0001FEF758FCC7
:1028500020F07F40844294BF0020012038BD00BF9B
:102860008D49FD1A07000000F035002000CA9A3B90
:1028700010B505F0F3FC054C05490246204603F06F
:102880000DF92046BDE8104000F026BBAB39002012
:10289000C05F020070B5064688B030B101461348EB
:1028A00008B0BDE870401AF0CCBF114D114800F0DF
:1028B00013FB1BF025FF0FCD03AC0FC42B68236067
:1028C0000D4900963346032203A804F02BFE20B1E5
:1028D0000A4800F001FB08B070BD032000F0E4FAE4
:1028E000032000F0E7FA0648F3E700BFDC5F0200D0
:1028F00090480200FC5F02003849020012600200AA
:102900002E60020070B503788AB004460E4607AD0B
:10291000032B20D8DFE803F002191B1D11492846BC
:102920001DF0B0F963780493A3780393E3780293DE
:1029300023790193637900930B4AA37905951E21AE
:1029400030461AF08BFF0AB070BD0849E7E7084926
:10295000E5E70849E3E7084A0A2128461AF07EFF1E
:10296000E0E700BF4F60020078600200566002009E
:102970005D600200676002007160020000B589B00E
:102980001EF025FA6946FFF7BDFF034800F0A4FAE0
:1029900009B05DF804FB00BF9B60020030B589B050
:1029A0000C4615461EF013FA6946FFF7ABFF4DB90A
:1029B00008490948224603F071F8074800F08CFAEC
:1029C00009B030BD054904482B46224603F066F89D
:1029D000F3E700BFAA600200AB390020C06002002C
:1029E00000B589B01EF0F3F96946FFF78BFF0320AD
:1029F00000F05AFA032000F05DFA044800F06CFA87
:102A0000034B00221A6009B05DF804FBEB60020082
:102A10001018002030B589B00D4604461EF0D7F9D5
:102A20006946FFF76FFF25B10C4800F055FA09B071
:102A300030BD012000F038FA012000F03BFA0848D0
:102A400000F04AFA074B0122022120461A601EF0CC
:102A500064F90028EBD00448E7E700BFF860020003
:102A60000A610200101800201561020008B508482C
:102A700004F058F820B1BDE80840064800F02CBA30
:102A8000054805F03BFABDE80840044805F0CABB1C
:102A9000952800003A6102008C01002068010020A6
:102AA000F8B5BDF818600948CF681C46154600F017
:102AB00013FA3319012B06DC22462946B8191DF0FA
:102AC00029F92046F8BD6FF00604FAE750610200CC
:102AD000F0B50C4685B0054609481F46164600F07D
:102AE000FBF904230293E3680193BDF828300093B7
:102AF00032463B46214628461FF000FB05B0F0BD9C
:102B000066610200F0B5044685B00A481F460D46CE
:102B1000164600F0E1F901230293074B0193BDF83B
:102B20002830009332463B46294620461FF0E6FAFD
:102B300005B0F0BD75610200E3070020F0B5044662
:102B400085B00A481F460D46164600F0C5F97623A3
:102B50000293074B0193BDF82830009332463B4661
:102B6000294620461FF0CAFA05B0F0BD8D6102006B
:102B7000E4070020F0B5044685B00A481F460D461C
:102B8000164600F0A9F902230293074B0193BDF802
:102B90002830009332463B46294620461FF0AEFAC5
:102BA00005B0F0BDA26102005E080020F0B5044649
:102BB00085B00A481F460D46164600F08DF90223DF
:102BC0000293074B0193BDF82830009332463B46F1
:102BD000294620461FF092FA05B0F0BDC3610200FD
:102BE0005C080020F0B5044685B00A481F460D4633
:102BF000164600F071F902230293074B0193BDF8CA
:102C00002830009332463B46294620461FF076FA8C
:102C100005B0F0BDE76102005A080020F0B5044697
:102C200085B00A481F460D46164600F055F90223A6
:102C30000293074B0193BDF82830009332463B4680
:102C4000294620461FF05AFA05B0F0BD0B6202007B
:102C5000A939002030B50D4685B008481C4600F063
:102C60003BF9EB6806491A7801A802F017FF01A8A2
:102C700000F032F9204605B030BD00BF1C620200F2
:102C80002963020007B54B1E594259418DF80710C0
:102C90009DF80710074B084A0848002908BF1A4644
:102CA000074902F0FBFE054803B05DF804EB00F0B5
:102CB00013B900BF3D62020035620200AB3900204B
:102CC000466202001FB5304B1B684BB92F49304894
:102CD00002F0E4FE2E4805B05DF804EB00F0FCB80D
:102CE0004278022A1ED0032A2ED0012A47D18378A7
:102CF0008DF80C300222C37826488DF80D3003A9D8
:102D00001AF0D5FC9DF80D309DF80C20224940B2F8
:102D100000901F4802F0C2FE1D4800F0DDF805B02B
:102D20005DF804FB83788DF80C3003A9C3781B4849
:102D30008DF80D301AF0BBFC40B29DF80D309DF8B7
:102D40000C2017490090E4E783788DF80C30C378A5
:102D50008DF80D3003A9037912488DF80E301AF062
:102D6000A6FC9DF80E30009340B201909DF80D3006
:102D70009DF80C200C49064802F090FECCE70B4968
:102D8000034802F08BFEA5E71018002061620200E4
:102D9000AB390020784902007C620200B44902008D
:102DA000AE620200044A0200E06202001763020001
:102DB0002DE9F0470446D1F8008000680E4615461C
:102DC00020F0F4FD0346206873B121796279D0F8D0
:102DD00010C0012312F0010F03FA01F7DCF80030F4
:102DE00008D123EA070306E001682348BDE8F0475D
:102DF0001AF027BD3B438768CCF8003042F40072DC
:102E00003B689847014660BB4FF4004725EAE575EB
:102E100040F2E730C5FB07014FF47A720023FEF75A
:102E20006FF94FF0010A81460F4620683568036943
:102E300021791B68012D88BFB8FA88F50AFA01F1DB
:102E400088BF6D09194214BF85F001032B467BB181
:102E50008368DB689847484639461AF0A3F9A846C4
:102E6000E3E7A36822790548BDE8F0471AF0E9BC1A
:102E700083681B69EEE700BF2C6302004B6302000E
:102E8000024903484FF47A72FFF792BF18180020E6
:102E9000F44A0200024903486422FFF789BF00BFD9
:102EA00014180020004B0200014B1860704700BF4F
:102EB00018180020014B1860704700BF141800203C
:102EC00008B500F079F8034800F006F8BDE80840BE
:102ED000FFF7CCBDC2630200024610B509490A489B
:102EE00002F0DCFD094B08481C681CF0D5FEA36805
:102EF0005B69024623B120460349BDE810401847EC
:102F000010BD00BFD2630200AB3900201C180020A6
:102F10002DE9F047054690B083685B6C03B1984794
:102F20004022002168461CF000FFAB689C6924B178
:102F3000402269462846A04704461A491A481A4FB3
:102F4000DFF86890DFF868A002F0A8FDE8460546C3
:102F50000026781918F8012B494602F09FFD01362A
:102F6000062E054414D11048FFF7B6FF062C03D1F6
:102F70009DF80030FF2B11D00E490B486B462246BE
:102F800002F08CFD0848FFF7A7FF10B0BDE8F087FE
:102F90007819514602F082FD0544DAE76846FFF7EA
:102FA00091FEF2E7D7630200AB39002072600200A5
:102FB000ED630200F063020037B5002501952F484C
:102FC0002F4C19F0F9F82060002841D0284601F074
:102FD00067FB024600283BD1206883681BB19B6CCD
:102FE0000BB128499847206883689B6A03B19847CA
:102FF000254821F0B1F82548FFF76EFF2068836867
:103000001B6D13B101AA04219847019B2BB9002124
:1030100040F6CD401AF0C6F8F0E71D48FFF75CFF18
:1030200020688368DB6CABB91A48FFF755FF20684E
:103030008368DB6CA3B91848FFF74EFF20688368EC
:103040001B6D9BB91548FFF747FF1548FFF744FF75
:1030500003B030BD0122082198470028E7D0E3E7FC
:103060000122102198470028E8D0E4E76A460121B0
:1030700098470028E6D10B48E5E700BF206402002E
:103080001C180020112F000040420F002A6402008B
:103090003764020042640200546402006664020065
:1030A0008F6402007D64020030B50A4C0A449142EC
:1030B00000D130BD11F8013B58400309E35C83EABD
:1030C0000013DDB2C3F30313E05C80EA0510C0B265
:1030D000EDE700BFA56402000B6801330B60014BF4
:1030E0001B6818472802002007B50B46002102463E
:1030F0000191034801A900F0F9F803B05DF804FB61
:10310000D930000030B585B0CDE901010446002575
:1031100001A90548039500F0E9F8DDE9023098427D
:10312000B8BF255405B030BD1DD801002DE9F84FBA
:10313000B0F8189019F00808044693460DD00129FC
:103140000CBF49F0100949F02009A0F818908BF342
:103150001188BFF36F8FBDE8F88F09F007090229C6
:1031600007D120461AF0A1FB0028F0D00128238BBC
:103170004ED16769218B002F15DA256821F00701F0
:10318000C4E9008841F0010121830026218B01F070
:10319000070ACA4502D0A368002B5AD10DB9002EE8
:1031A00071D0002356E001F007035A1F012A1ED8F0
:1031B00021F00701062B256889B2C4E900880AD1ED
:1031C0003DB1638B2A46126801339BB2002AFAD1C3
:1031D000638341F00201218320461AF066FB064614
:1031E0000028D3D0238B43F020032383CDE7042B87
:1031F0000CD121F0070189B2218320461AF055FB3A
:1032000005460028C1D041F0200121830025BCE7FC
:10321000032809D1226923F00703166843F0060347
:10322000238300252F46B1E7042806D1226923F025
:103230000703566843F00403F2E7052806D1226924
:1032400023F00703966843F00503E9E700252E46BF
:10325000E8E7012341F0080121838BF31188BFF3D4
:103260006F8FFBB985BB16B11F492046B0474FF0A1
:103270002003EFF3118B83F31288BFF36F8F238B3F
:1032800023F008032383238BDA0625D523F01003CC
:1032900023830121B4F8189009F0070900297FF46D
:1032A0005EAF54E7A1680029DCD0D1F80090D1F8D6
:1032B00004B03B4652462046D847B9F1000FD1D062
:1032C0004946D9F80090F2E729463B465246204647
:1032D0002D681AF006FBC5E713F020011EBF23F08E
:1032E000200323830221D5E70FD901002DE9F04FF8
:1032F00091B08B46029092461C4600259AF8000039
:1033000008B928465FE325280AF1010707D0029B88
:10331000594698470028C0F25683013512E2182218
:1033200000210AA81CF001FD9AF80130252B78D065
:1033300000221046964694461646394617F8013B39
:103340002B2B00F09D8000F29480202B00F09B80BE
:10335000232B00F09B802EB19DF8306046F00406D0
:103360008DF83060BCF1000F05D09DF8306046F05C
:1033700008068DF83060BEF1000F05D09DF8306072
:1033800046F010068DF8306028B19DF8300040F00E
:1033900020008DF830002AB19DF8302042F0400224
:1033A0008DF830209DF8302002F04400442803D1ED
:1033B0006FF386128DF830209DF830202A2B42F0D2
:1033C00080028DF830207BD19DF8312042F001023F
:1033D0004B1C8DF831201A782E2A9DF831200CBF15
:1033E0000121002161F341028DF8312074D15A7816
:1033F0002A2A6AD0013300210A26184610F8012B28
:10340000A2F13007092F40F28E809DF830200E91F6
:10341000C2F3400040EAD17161F341028DF83020DF
:103420005AE00AF102078DF833309DF83130D907A0
:1034300040F1498154F8049BB9F1000F07DA9DF877
:10344000302042F004028DF83020C9F100095A07FB
:1034500040F1428154F8048BB8F1000F80F24181B1
:103460009DF831306FF341038DF831304FF0FF3864
:1034700037E12D2B0CD0302B7FF46DAF01225CE7B0
:103480004FF0010C59E74FF0010E56E7012054E7C9
:10349000012652E70CFB0202303A33461E4616F86C
:1034A000010BA0F13007092FF4D9994293D09DF870
:1034B00030100D92D20F62F341018DF830108AE77F
:1034C0000B4600224FF00A0CE8E79DF8312042F04D
:1034D00004028DF8312002331F4617F8012B6C2AA5
:1034E00041D025D8682A2BD06A2A46D04C2A4CD005
:1034F0001F4617F8012B9DF831308DF83320782ABC
:1035000000F2D980572A4DD8412A03D0453A022AE1
:1035100000F2D1809DF83230042262F302038DF86C
:10352000323001239EE006FB01213039034664E777
:10353000742A26D07A2ADBD19DF8313006220DE09C
:103540005A78682A9DF8312006D1012161F3C6021C
:103550008DF831209F1CCCE71346022262F3C6038C
:103560008DF83130C5E75A786C2A9DF8312001D1A9
:103570000421EBE713460322F0E79DF831300522E2
:10358000ECE79DF831300722E8E7BDF8303023F44E
:10359000F04323F0020343F4804343F00203ADF809
:1035A0003030A6E7A2F15801202900F2848001A062
:1035B00050F821F079360000B7360000B736000029
:1035C000B7360000B7360000B7360000B736000047
:1035D000B7360000B736000015350000B7360000DA
:1035E0007936000039360000153500001535000029
:1035F00015350000B736000039360000B736000038
:10360000B7360000B7360000B7360000813600003C
:10361000793600009D360000B7360000B73600004E
:103620009D360000B736000079360000B73600003E
:10363000B7360000793600009DF83210012003F003
:10364000780360F30201402B8DF8321002BF9DF821
:10365000301041F001018DF83010632A31D1003B68
:1036600018BF01239DF83020C2F340010B4363F3E0
:1036700041028DF83020D8E69DF832100220DEE7B6
:103680009DF8322003F07803A3F14000032161F399
:10369000020243428DF832204341E3E79DF8322095
:1036A000032113F0780F61F302028DF8322014BF6A
:1036B00001230023D6E79DF8303043F001038DF855
:1036C00030300023CEE79DF93020002AB4BFDDF86A
:1036D00034904FF0FF39BAE69B077FF5C7AEDDF8AF
:1036E00038809DF831100023CDE90D339DF832303C
:1036F00003F00703012BC1F3C30138D1CB1E042B08
:1037000022D8DFE803F003090921210054F8043B23
:10371000DA17CDE90A3206E0073424F00704F4E8AA
:103720000223CDE90A239DF8303013F0030656D06A
:1037300002983B46524659461AF09EFC0028C0F2B9
:1037400042810544BA46D9E554F8043B01294FEAC1
:10375000E372CDE90A3205D19DF828300A9300239F
:103760000B93E0E70229DED1BDF92830D0E7022B28
:1037700023D1CB1E042B13D8DFE803F0030A0A126F
:10378000120022680A920023201D0B930446CAE708
:10379000E01D20F00700F0E80223CDE90A23F5E759
:1037A00054F8043B0A9301294FF000030B93D3D044
:1037B0000229B8D1BDF82830D0E7042B09D1E31D88
:1037C00023F0070303F10804D3E90023CDE90A231A
:1037D000A9E7032B04BF54F8043B0A93A3E79DF821
:1037E00033007828AED8622822D825283FF48FAD40
:1037F0005828A7D10DF126030093DDE90A0104AB97
:103800000CAA1AF0F3FB8246B8F1000F0DF1260066
:103810000CDB9DF83020A0EB0A036FF3861298456D
:103820008DF8302002D9A8EB03030D9380463DE0CC
:103830006338152886D801A252F820F0BD38000060
:1038400021390000453700004537000045370000AA
:10385000453700002139000045370000453700009A
:1038600045370000453700007B390000493900002A
:103870004D390000453700004537000095380000FD
:103880004537000049390000453700004537000042
:1038900049390000B8F1000FDDF828A00ADB4146E5
:1038A00050461CF000FA0AEB00080026BAF1000F9F
:1038B0000CD147E750461CF0EFF9F4E70A9B8DF86E
:1038C000103000260DF1100A0DF11108A8EB0A03C3
:1038D00006B101339DF83220D00668D50233520676
:1038E0000D9948BF0E9A0B4448BF9B18B9F1000FC1
:1038F00076DD9DF83020A9EB0309C2F38003039322
:1039000053076DD4500661D546B1029B59463046E7
:103910009847002857DB039B01351E46302356E0AD
:103920001E070FD413F0100618BF2026DDE90A2366
:10393000002BBFF65FAF524263EB4303CDE90A238E
:103940002D2657E72B26F1E7002653E70A9840B3C8
:103950000DF1260300930CAA04AB00211AF046FBDC
:10396000BDF8323003F0EF0343F4F04343F01003AB
:103970008246ADF83230002646E70A9B07293FF61B
:10398000E1AEDFE801F00C04060C08080C0C1D7019
:10399000D8E61D80D6E6EA17C3E90052D2E61D60DC
:1039A000D0E6DFF8C8A006460AF105088EE7110741
:1039B00048BF013393E7184603935946029B984743
:1039C0000028039B04DA11B0BDE8F08F20234D449A
:1039D0004A46002AA5EB090109F1FF39EBDC0D4647
:1039E00036B1029B5946304698470028EBDB01353B
:1039F0009DF83230D90601D41A0706D5029B5946E4
:103A0000302098470028DEDB01359DF83230DB0698
:103A100007D59DF83300029B594698470028D2DB12
:103A200001350D9E2E44731B002B16DC0298434675
:103A3000524659461AF020FB0028C4DB0544A9442D
:103A4000A9EB0503002B7FF77DAE029B5946202092
:103A500098470028B7DB0135F2E7029B5946302032
:103A600098470028AFDB0135DDE700BFB5640200F1
:103A70001FB507240294044C0194BDF8184000942B
:103A80001EF03CFB04B010BD6008002010B5084CCF
:103A900086B024788DF81740012402940DF11704A4
:103AA0000194BDF8204000941EF028FB06B010BD24
:103AB000670800202DE9F7430F4606460821C06A33
:103AC000DFF850901AF0D1FB3C68241A80463C6025
:103AD00004EA0905AC4203D8002003B0BDE8F08336
:103AE00008236A46214630461AF019FB0028F4D113
:103AF000694630461AF0C3FB40B1BDF80230BDF84C
:103B000004203C6005EA090513441D44A4EB0804A5
:103B1000E0E700BF0000FFFF2DE9F04F044689B049
:103B20000D4600F11407384620F01AF8284618F020
:103B300043FBA062002800F01F8183681B6998473F
:103B4000E06228B96FF01505284609B0BDE8F08F8E
:103B5000A06A83681B6998470368013B1F2BF1D853
:103B6000A06A216805AA1FF017FC0028EAD1A589E0
:103B7000002DE7D0069BB5FBF3F203FB1255002D99
:103B8000E0D1E389012BDDD9E36A009593F8048045
:103B90004FF0FF334FF0FF32384618F031FDE06A46
:103BA00008211AF062FBA9460646E3891FFA85FA46
:103BB000534545D8E3894B4500F0D38053450BD19D
:103BC000009908234246891B20461AF0E0FA18B9EA
:103BD000E08969461AF03EFB69462046FFF76AFF16
:103BE0000546002840F0BF80009BDFF8E491636049
:103BF00003EA0903A360D4E9011399420ED3082311
:103C000001AA20461AF08BFAC0B901AB13F8012BB8
:103C1000904540F0C18001300828F7D16368E08901
:103C20001B0C1B04694600931AF014FBA38900992E
:103C3000424620461AF0ABFA002826DA054692E002
:103C4000A1892B04891B13FA81F1424608232046DF
:103C500000911AF09CFA78B1E08969461AF0FAFAF4
:103C600009F1010900990823424620461FFA89F903
:103C70001AF08DFA00289DD0013596E7BAF1000FB1
:103C800000F0A2806FF01C056DE045D063683344FE
:103C900000934FF6FF780099A3898AB29B1B9A4242
:103CA00015D3616820461AF097FA0028C6D16368D8
:103CB000474AA18913400B44A3EB460363601340BA
:103CC000A36020461AF0CDFB002840D0B6E70823B9
:103CD00003AA20461AF023FA0028AFD103A92046F0
:103CE0001AF0CDFA38B1BDF80C30434503D1BDF818
:103CF0001030002B43D0009B33440093CBE75B1A7A
:103D0000424620461AF043FA002897DB08D0E26AC0
:103D1000A36812681344A360D4E901318B42EED842
:103D20006168A38901EB46029A42CDD1DFF8A080F9
:103D3000A36801EA08029342C6D020461AF04CFA62
:103D400000287FF47BAF636803EA0803A360A089BF
:103D5000A388A0EB4606B34205D120461AF020FB0B
:103D60006CE76FF02C05384618F0C2FC002D7FF48C
:103D7000EBAE01232374E7E66FF00505E4E6636824
:103D8000E0891B0C1B04694600931AF063FA009942
:103D900020461AF021FA97E701A920461AF06FFA97
:103DA000D4F804B080B1009ABDF808A0BDF80610A0
:103DB000E06A02EA0902A26051441AF056FA02448B
:103DC0005A45A2603FF45AAFABEB0603636012E7BB
:103DD0000000FFFF2DE9F04F1E46037C89B004462A
:103DE00089469046002B00F0B280C26A0821104636
:103DF0001AF03BFA3146824610461AF036FAA38989
:103E0000A3EB8A039E42074600F2A4801EB1B8F1DC
:103E1000000F00F09F806368039304AA03A9204663
:103E2000DDF80CB01AF0D1FA054600285AD1BDF8D9
:103E300010304B4505D06268039B9A42EDD1DEB944
:103E400050E004A920461AF01AFA0028F3D0BDF871
:103E5000143086B19E420FD1BDF812004FEA1B41CB
:103E6000090401443346424620461AF066F9002808
:103E700002DC054636E0ABB3002F37D104F1140A5B
:103E80004FF0FF324FF0FF33504618F0B9FBDFF828
:103E9000CCB0E3899D4257D0D4E90123F9188A4276
:103EA00027D3ADF81A3006A8FF238DF81E30ADF8E1
:103EB0001890ADF81C601AF0C4F93246414620460D
:103EC0001AF04AFA034638B906A920461AF057FAFA
:103ED000002814BF034633460193504618F008FCEF
:103EE000019B1D46284609B0BDE8F08F5744BFB27C
:103EF000C4E70821E06A1AF0B8F94FF6FF73ADF88D
:103F000018300023ADF81C301318ADF81A30A3890F
:103F100002EA0B021A44121A626006A81AF091F91A
:103F200006A920461AF02BFAE089211D1AF092F911
:103F3000636803EA0B03A36020461AF092FA034673
:103F40000028C9D10135A4E76FF01B03C4E76FF067
:103F50000C05C7E76FF01505C4E700BF0000FFFFC1
:103F60004306F0B519D00E4A0E4B0F499B1A9B1011
:103F70004B4300249C4201D10020F0BD156A177FFD
:103F80000021043DCEB2B74202D801342432F1E719
:103F9000013115F831608642F4D10120EDE700BF10
:103FA000850B0020850B0020398EE338F0B5104BCF
:103FB000104C114D1B1B9B106B43104DD5F824C0AA
:103FC00000259D4202D16FF08500F0BD676867450E
:103FD0000AD3266946B197F802E00779BE4503D1B6
:103FE0003346BDE8F040184701352434E9E700BF07
:103FF000850B0020850B0020398EE3382018002027
:104000002DE9F047174D184C184BDFF864A0641BDE
:10401000A41006460F4690465C434FF000094C45FD
:1040200003D16FF08500BDE8F0876A68DAF82430C4
:104030009A4212D3AB6983B190783179884205D125
:10404000424639463046BDE8F04718475279012AC2
:1040500003D1424639463046984709F101092435D3
:10406000DDE700BF850B0020850B0020398EE3388B
:10407000201800202DE9F8430E4D0F4C0F4B641B08
:10408000A41006460F4690465C434FF000094C458D
:1040900002D16FF085000BE06B691BB909F10109D2
:1040A0002435F4E742463946304698470028F5D192
:1040B000BDE8F883850B0020850B0020398EE3389E
:1040C00007B583788DF800300379427943EA0223FB
:1040D000ADF80230C378684603F003038DF804306E
:1040E00015F01CF810F1780F04D018B1002003B0BF
:1040F0005DF804FB9DF8000015F096F810F1780FBC
:1041000001D00028F2D1024B012083F8B900EEE77C
:10411000201800200248082200211BF006BE00BF24
:10412000DB180020094808B50378C3F341130A33AC
:1041300050F823303BB100F1080200F1100198471C
:10414000C043C00F08BD1846FCE700BF2018002080
:104150002DE9F14F284B294CE41A294BA4100428CF
:1041600005460E4603FB04F41CD1FFF7D3FFDFF82E
:10417000949099F8B930BBB100F002FD042D13D131
:104180001D4F4FF00008444525D0D7F820B04FF020
:10419000000A3A7F5FFA8AF39A4213D808F10108BD
:1041A0002437F0E70528E2D0134F4FF00008A04570
:1041B00015D1144B1B6AE3B13146284601B0BDE866
:1041C000F04F18470BEBC3030AF1010A187915F0F9
:1041D00055F80028DDDA002389F8B930E4E7FB68F8
:1041E0001BB1324629463846984708F10108243762
:1041F000DDE701B0BDE8F08F850B0020850B0020C6
:10420000398EE338201800202DE9F3479A4EB36920
:1042100005460F4690465BB9287800F01F03012B36
:104220007AD0022B00F0E4803BB16FF015008DE0F6
:1042300098470028F0D1002088E095F900206878A0
:10424000002A2BDA0628D8F8002009D008281FD029
:104250000028EAD101235070137002233B6075E0FF
:1042600069880A0A101F0128DFD9072ADDD8CCB2D5
:10427000716A18460B78002BD7D04D78954203D140
:10428000844200F01C8101301944F3E70B781CE1F3
:1042900096F8BA10117001223A60CCE7052818D0C0
:1042A0000928C2D16C8844B14FF0FF08776A1846DC
:1042B000C1463C789CB90028B7D0FFF72BFF6B882C
:1042C00086F8BA30F369002BB5D06C4903209847C3
:1042D000B1E7A87814F010FF0028ACD0A5E77B78F0
:1042E000042B0CD0052B0DD0022B05D197F805809F
:1042F0006A88424508BF01203B781F44D9E797F8F8
:104300000390F9E76B884345F6D1B9F1000FF3D17B
:104310003846FFF7D5FEEFE796F8BA30002B84D089
:10432000746AB5F804C0287923461A78002A3FF445
:104330007CAF5978022904D193F804E0864500F255
:10434000C6801344F1E710705070396002B0BDE8C8
:10435000F0870C44C9E00B287FF467AF00274FF0CB
:10436000FF0AD046B94606E06378042B0FD0052B30
:1043700022D023781C442378002BF5D1F36913B1A4
:10438000494607209847002F7FF455AF4DE794F832
:1043900002A0AA8894F8038092455346E9D169881F
:1043A00088451FFA88F2E4D1072B1ED83344A14672
:1043B00083F8BB200127DCE7AB885345D9D1AB7824
:1043C00043450DD0A778384600F0BCFB384614F0C2
:1043D00055FF10F1780FEDD0B0FA80F77F09C8E7EC
:1043E0002046FFF76DFE0746C3E7A1460027C0E75A
:1043F00095F900206B78002A19DA002B7FF415AFAD
:104400002C792046FFF7ACFD00283FF40EAF610683
:1044100004D096F8BA30002B3FF407AFD8F800501C
:104420002046294614F0E4FE0020687015E7012BB1
:1044300026D0032B7FF4F9AE6B88002B7FF4F5AE0A
:104440002C798DF807402046FFF78AFD00283FF4BD
:10445000ECAE630604D096F8BA30002B3FF4E5AE1C
:10446000204614F07DFEF369002B3FF4E4AE0DF11D
:10447000070108202BE700BF20180020DA180020D1
:104480006B88002B7FF4D1AE2C798DF80740204645
:10449000FFF766FD00283FF4C8AE620604D096F828
:1044A000BA30002B3FF4C1AE204614F081FEF36910
:1044B000002B3FF4C0AE0DF10701092007E7022AE7
:1044C000C8F800107FF4E2AE4B883B60B3E695F984
:1044D00000306878002BBFF63EAFD8F800200028E7
:1044E0003FF431AF0A287FF4A0AE217800293FF4D1
:1044F0009CAE6378042B7FF42CAFA3789C457FF4AB
:1045000028AF072B96BF9B19002393F8BB3013707D
:104510000123DAE713B5134C237DC3B9E268A16820
:10452000019201AB80201AF0B3F80199A268E36808
:104530000A445B1AA260E3603BB92369E2889A42AD
:1045400003DD9B0601D10123237502B010BD0023BA
:104550001A4619468020237502B0BDE8104014F0B9
:10456000B3BE00BF2018002030B585B0002302463E
:104570000D46019300285FD100293CD108220B464B
:104580000DEB02011EF038FD002804DA802014F043
:10459000E7FD05B030BD2D4C9DF809309DF8082091
:1045A0006370BDF80A306380BDF80C302270A380C0
:1045B00004F13801BDF80E30E3801206C4E903555A
:1045C000A16025750AD4802B04D9802014F0C8FD81
:1045D0000020DCE713B1C4E90333DAE7FFF7A2FDFB
:1045E0000028D3D0E28823699A42D4BFE260E36016
:1045F000FFF790FFCDE7154CD4E90215002D01AB74
:1046000004DC1EF0F9FC0028C3DABFE72A461EF0DE
:10461000F3FC0028D9DB0199A268E3680A445B1A1D
:10462000A260E360002BB4D104F13803A360FFF76C
:1046300079FD0028DCD1A9E78028AAD1034BDA68EC
:10464000002AD5D11B7D002BD2D1A2E72018002053
:10465000054B064A9A62064ADA62064A1A63064A15
:1046600058629A610020704720180020094200001B
:10467000AD3F00007540000001400000074B10B541
:1046800093F8B84024B900F0B3F918B1FFF7E0FF90
:10469000002010BD4FF0FF30FBE700BF20180020C6
:1046A0002DE9F7430446384D38484FF0FF324FF0BC
:1046B000FF3317F0A5FF95F8B860002E41D13448BC
:1046C0002C62E86114F016FF14F0D8FC041E39DBEC
:1046D00000F07EFA041E35DB40236846ADF8023058
:1046E0008DF804608DF8006014F018FD041E29DBBD
:1046F000802768468DF8007014F010FD041E21DB41
:104700002449304614F0E2FE041E1BDB21493846E2
:1047100014F0DCFE041E15DB1F4F204C204BE41B65
:10472000A4105C43B44214D1002014F07DFD041E9B
:1047300008DB802014F078FD041E03DB012385F8DC
:10474000B8300024114817F0D3FF204603B0BDE86D
:10475000F083D7F820904FF000083A7F5FFA88F393
:104760009A4202D801362437DCE709EBC30259F834
:104770003310107914F0AAFE08F101080028ECD0DB
:104780004FF0FF34DEE700BF20180020840900202E
:104790005141000069450000850B0020850B002079
:1047A000398EE33830B51E4B8BB005AA03F11005E6
:1047B00018685968144603C40833AB422246F7D13F
:1047C0001B7823701022002101A81BF0AEFA1222E0
:1047D000002114481BF0A9FA102101A81EF041FD88
:1047E00000281ADD083801AA0E490028A8BF1218AF
:1047F000002012F8013B0AAC04EB131403F00F0382
:1048000014F8144C0C700AAC2344013013F8143C17
:104810004B70082801F10201EBD102480BB030BD0A
:10482000D66402002B3A00202DE9F04F6B4A6C4B06
:104830009B1A6C4A87B09B10534304460193002592
:104840004FF0011BA9462E46AA46207820B9664B98
:1048500002349C4217D0F2E76378052B05D8DFE8D5
:1048600003F083040383072BA24623781C44ECE760
:10487000E378002BF9D1A3789BB9584A0199994262
:1048800004D14FF0FF3007B0BDE8F08F51688C4283
:1048900002F124020AD1514A242606FB0326B368FA
:1048A00033B909F101095FFA89F9DEE70133E5E778
:1048B000494620469847F4E7002EE2D00023012124
:1048C000327F9342DDD2326AA77802EBC3021079BD
:1048D000874201D00133F3E70127E07894F805C05F
:1048E00000F003008DF81400207940EA0C20ADF8A8
:1048F000120094F9020000285FFA87F828DA07F11D
:10490000100001FA00F010EA0B0F29D168F07F00C7
:104910008DF8100004A8CDE902321EF055FBDDE948
:1049200002320121E0B99DF81030A37013F0800F1E
:104930001CBF08F110085FFA88F813710B4615BF09
:1049400001FA08F8BB404BEA080B4BEA030B8CE773
:1049500001FA07F010EA0B0F02D18DF81080D9E7A9
:104960000137102FB9D1B5E7032D1DD1FFF71AFF7D
:10497000074668B11BF090F9804648B11B481BF010
:104980008BF9804504D142463946A01C1BF0C2F980
:1049900023786FF00201E218091B04EB5303D142A4
:1049A00013D50135EDB260E7002DF1D1BAF1000F5A
:1049B0003FF467AFA4EB0A038AF80230C3F307237E
:1049C0008AF803308AF80490EBE74FF0000002F811
:1049D000010C13F8010902F8020DE0E7850B002035
:1049E000850B0020398EE338850B0020D664020049
:1049F00008B50448FFF718FF0028024818BF002038
:104A000008BD00BF180B002010B5094B00211A4645
:104A10001C78844205D15C681CB1482000FB012051
:104A200010BD0131042903F14803F1D10020F7E75B
:104A3000E41800202DE9F34150F8303C10F8346CB4
:104A40001033044610D1036950F8282C99073CD53F
:104A500002BB13F0040304D11A461946304619F07C
:104A600017FE002344F8303C54F8303C10330ED08D
:104A700054F8205C5DB154F8247C54F81C8C1FF071
:104A800055F800284CD02E4821461FF0C6F902B038
:104A9000BDE8F08150F82C1C01AB304619F0F8FD50
:104AA00010B16FF01503DDE7019A54F82C3C134464
:104AB00044F82C3C54F8283C9B1A44F8283C54F801
:104AC000243C134444F8243CCEE750F82C1C01ABA2
:104AD000304614F071FC0028E3D1019D54F82C3CC1
:104AE0002B4444F82C3C54F8283C5B1B44F8283CED
:104AF00054F8243C2B4444F8243C002DB1D03046DB
:104B000014F0FEFCB5FBF0F303FB1055002DA8D10B
:104B100054F8283C002BA4D0304614F095FCA3E7B1
:104B200044F8200CA4F1180017F058FE54F8303C5B
:104B30008C33ACD0424639463046A847A7E700BF81
:104B4000880C002010B54FF02003EFF3118483F39D
:104B50001288BFF36F8FFFF757FF50B143681033D0
:104B600007D16FF08B03436000F1340103481FF05D
:104B700054F984F31188BFF36F8F10BD880C0020A7
:104B80002DE9F041104CDFF8448004256FF08B07CD
:104B90004FF02003EFF3118683F31288BFF36F8F7A
:104BA0006368103305D104F13401404667601FF09B
:104BB00034F986F31188BFF36F8F013D04F1480487
:104BC000E6D1BDE8F08100BFE4180020880C002089
:104BD00070B50A4C0A4E0025314620461FF014F9E4
:104BE0000122A4F11800114601351FF08DF8042DA3
:104BF00004F14804F0D1002070BD00BF1819002056
:104C0000354A000037B5094D0949002400944FF09A
:104C1000FF334FF48062284617F052FF05492846BB
:104C20001EF08AFF204603B030BD00BF880C002074
:104C300060430020E7640200084B30B51C68084B55
:104C400001461A6800239C4201DC002030BD10465A
:104C5000103205788D42F9D00133F4E7384C020068
:104C600064020020084B1B6810B50C462BB1FFF7FF
:104C7000E3FF28B12060002010BD6FF00C00FBE7BF
:104C80006FF00100F8E700BF6402002030B589B082
:104C90000C4615460190FFF7CFFFB8B14368029369
:104CA00083682268C068CDE903350023CDE9062377
:104CB000059319F005FD60B1074901AA1EF070FBCC
:104CC000079808B9059B236009B030BD6FF0150047
:104CD000FAE76FF01200F7E7C5E60100104B2DE987
:104CE000F0411C6805460E461746ACB14FF0FF3246
:104CF0004FF0FF330B4817F083FC63683246D3F85C
:104D0000088029463B462046C0470446054817F020
:104D1000EFFC2046BDE8F0816FF00104F9E700BF29
:104D20000C1A00207009002000230360044B5A680D
:104D300012B9C3E90000704710605860704700BFA7
:104D4000041A0020014B1860704700BF0C1A0020A5
:104D500030B585B000230546CDE9023301904FF010
:104D6000FF330C484FF0FF3217F04AFC0A4B1C6827
:104D700034B1636820461B6801A998472468F7E7A7
:104D8000284600F085F80446024817F0B1FC20469A
:104D900005B030BD70090020041A00201FB5CDE910
:104DA000010103924FF0FF330A484FF0FF3217F032
:104DB00027FC094B1C6834B1636820461B6801A9B5
:104DC00098472468F7E7034817F092FC002004B0E6
:104DD00010BD00BF70090020041A0020024B002201
:104DE000C3E90022704700BF041A0020024B0022D2
:104DF000C3E90022FFF7F2BF101A00202DE9F341AA
:104E000007460E4609B100230B601E4CDFF8788080
:104E10000025444508D31D4B1C680CB1143CC4B993
:104E2000284602B0BDE8F081216801AA384619F091
:104E30006EFC60B125B90EB1019B3360254606E0DA
:104E400029682068002219F062FC0028F3D114348C
:104E5000DFE7216801AA384619F059FC60B125B98D
:104E60000EB1019B3360254606E0296820680022C8
:104E700019F04DFC0028F3D114F1140FD0D064695F
:104E8000CBE700BFB44702002C480200101A0020F4
:104E9000F8B51A4C1A4F06460025BC4206D3194BEA
:104EA0001C680CB1143C9CB92846F8BD1EB9E368D7
:104EB0004BB91434F1E720680022314619F027FC81
:104EC0000028F4D1F5E79847002D08BF0546F0E724
:104ED00036B9E36863B914F1140FE5D06469E0E70B
:104EE00020680022314619F012FC0028F1D1F2E7C7
:104EF0009847002D08BF0546EDE700BFB447020004
:104F00002C480200101A002010B5064C23783BB93B
:104F1000FFF76CFF00F064F808B90123237010BD9F
:104F20000020FCE73D3A00202DE9F047048FDFF830
:104F3000ACA0013498B080468946A4B200F10806BE
:104F4000651EADB2B5F5004F45D04A2305AA2946E6
:104F5000304619F096FB04F57F543F34A4B207465F
:104F6000214601230DF10B02304619F08AFB002F78
:104F7000014603DC002803DC2C46E1E7002816DCB0
:104F8000B8F83830AB4209D142466B1E22F8383FA0
:104F90004FF4004102233046FEF71CFF29463046FD
:104FA00019F014FB2146304619F010FBE4E718AB6A
:104FB0001F44002307F84C3C5246CDF8009003AB49
:104FC00005A80396ADF8104019F0DAFB0028D3D0FD
:104FD00018B0BDE8F0870020FAE700BFE7E701005E
:104FE0007FB50123694603200193FFF73BFE04468A
:104FF000002836D102AA01A90320FFF747FE10F1CD
:10500000130F04462DD038B10C3405D0404080F346
:1050100011884FF0040002DF0399B1F5803F23D2DD
:10502000009A002395681846084485429CB203D331
:105030000133082BF8D11C460D4D5368AB60284650
:10504000D368EC82A982EB6319F064FC044640B992
:10505000084E6E602846FFF767FE28466E60FFF731
:1050600071FE204604B070BD6FF02004F9E700BF68
:10507000181A002068020020F8B505464FF02003FA
:10508000EFF3118683F31288BFF36F8F094B1C680F
:105090005CB1094FD4E90132002D08BF13460BB1B2
:1050A000387898472468002CF4D186F31188BFF330
:1050B0006F8FF8BD581A0020601A00201FB50F4BE3
:1050C0001A68BAB901221A600D4A07CA01AB83E80F
:1050D00007000C4A4AB193E807001AF04FFE00207F
:1050E00005B05DF804EBFFF7C7BF82F31188BFF38B
:1050F0006F8FF4E705B05DF804FB00BF7802002075
:10510000601A00207DFD0100F0B589B06E460146B1
:105110000546304619F01AFC96E80700174C84E85B
:1051200007002078274638B3154B002119606B1C07
:105130000DD0144816464FF4004C134A0023E6FBEA
:105140000C01FBF7DDFF0121281A1EF0E5FF17F027
:10515000ABFD0120FFF790FF97E8070005AB83E860
:1051600007000A4A1AB193E807001AF0F4FDFFF7A6
:10517000A5FF17F051FE207809B0F0BD601A00209D
:10518000780200203F420F0040420F0057FD01000F
:10519000014B1868704700BF7C020020F0B5082260
:1051A00089B019F08FFDCB6A03930B6B04934B6BA3
:1051B00005938B6B0693CB6B079313466A460C469D
:1051C0000646002711461046CDE90177009719F0F1
:1051D00086FC31460546304619F081FC216B03916F
:1051E000616B0491A16B0591E16B0544CDE9061754
:1051F0001046114619F073FC31460544304619F04B
:105200006EFC0544206A0090606A0190A06A0290DA
:10521000A06B0690E06B07903046CDE904770397CA
:1052200019F05DFC0544606A0090A06AD4F838C0AB
:105230000190E06A0290CDF810C0606BD4F83CC0D9
:105240000390CDE905C0206A0790304619F047FC6D
:105250000544E06A0090206B0190606B0290206A28
:105260000690A06A07903046CDE90477039719F0BD
:105270005FFD236B0093636B0193A36B0293E36B5E
:105280000393636A0693E36A07932D1A0823304653
:10529000CDE9047719F04CFD636B0093A36B019388
:1052A000E36B0293236A0393636A0493A36ACDE9D1
:1052B0000537236B07932D1A0823304619F038FD64
:1052C000A36B0093E36BCDE90137636A0393A36A91
:1052D0000493E36ACDE90537636B07932D1A08231E
:1052E000304619F025FD2D1A10D40D4C35B9082281
:1052F0003146204619F0F2FC01280FD0082322463F
:105300003146304619F014FD2D1AEFE7044A082300
:105310003146304619F0E3FB2D18F8D409B0F0BD42
:10532000404C02000449431E0F3013F8012F8A5CE1
:105330001A708342F9D1704703650200F0B5264E1A
:1053400007460C460FCE8DB001AD0FC50FCE0FC571
:1053500096E8070085E807003846002F38D0002C73
:1053600038D0381F2146024610344B780D781B0484
:1053700043EA0563CD782B438D78043143EA052356
:105380008C4242F8043FF0D1144C04218A0703698F
:1053900016D1C3F30742A55C1A0EA25C42EA05626D
:1053A000C3F30725DBB2655DE35C42EA054242EAEE
:1053B00003220CAD21F003032B4453F82C3C534043
:1053C00050F8042F013153402C290361DED1012014
:1053D0000DB0F0BD2046FBE7A448020003650200C3
:1053E000014910220A60704710ED00E072B640409B
:1053F00080F31188BFF36F8FBFF34F8F30BF62B65A
:10540000BFF36F8F704700BF72B6494081F31188B8
:1054100020BF80F3118862B6704700BF43B2002BF3
:1054200008DB012200F01F0002FA00F05B09024ACB
:1054300042F82300704700BF00E100E043B2002BB8
:105440000DDB01225B0900F01F0002FA00F020339F
:10545000034A42F82300BFF34F8FBFF36F8F7047AB
:1054600000E100E0054B420900F01F0053F8222044
:10547000012303FA00F01040704700BF00E100E094
:1054800043B2002BA8BF03F1604301F10101B8BF93
:10549000064B4FEA4111ACBF03F5614300F00F002A
:1054A000C9B2B4BF195483F80013704714ED00E07B
:1054B00008B572B6044B986918B100229A611EF0C3
:1054C00040FB62B608BD00BF4439002030BFFFF783
:1054D000FDBF00BF0F4A08B50F4B22F07F029A6054
:1054E000BFF34F8FBFF36F8FD3F8882022F4700281
:1054F000C3F88820EFF3148323F0040383F31488A4
:10550000BFF36F8F16F0CEFE17F0E0FE00F0CAF981
:1055100016F0D2FE0010000000ED00E0094A0A4932
:1055200093680968D967094998674B6843F08053C5
:105530004B60002383F31188BFF36F8F9368D86F9C
:10554000704700BF44390020985F020000ED00E082
:1055500012498A684FF030001044EFF3098C80E85C
:10556000F01F202080F31288BFF36F8F0C4F4FF095
:105570000066CA698A603E60906F0023936780F37B
:10558000118804B5104600F0CFF9BDE8044002F1DF
:10559000300090E8F01F8CF30988704744390020F0
:1055A00004ED00E01EF0040F0CBFEFF30880EFF3F2
:1055B0000980816911F8021C0229FFD001B51AF097
:1055C000DEFA01BD42F8203C009B42F81C3C0A492F
:1055D000019B42F8183C029B42F8143C21F0010167
:1055E0004FF0807342F8043C42F8081C0023203A34
:1055F00002658367704700BF83DA0100094A0346EA
:10560000906870B113F1160F806E05D0A0F12002E2
:105610009A4205D8834203D2814228BF00207047B6
:10562000002070474439002008B5094B98600D46AA
:10563000144600F079F9204685F30988002163B605
:1056400081F31188BFF36F8F0022002318F019FA3D
:105650004439002001B572B60B4A906900281EBF7C
:10566000002191611EF06DFA62B6EFF30580A0F1A2
:1056700010004FEAC0000549014409C99847BDE838
:10568000014003490847000044390020E845020072
:1056900095560000044B9968D869884203D00349A5
:1056A0004FF080520A6070474439002004ED00E05A
:1056B00038B5194B14469A6A9A6A9A6A0546900751
:1056C00019D5586B9A6A120615D519B19A6A22F043
:1056D00080029A629A6A9A6A9A6AD1060ED49B6A82
:1056E0009A070BD400200C4A936A43F0FF0393629D
:1056F0000023237038BD6FF01500EBE7064B5B68A5
:105700001B05EFD52946FFF779FF0028EAD080F383
:1057100009880220E7E700BF00ED00E00D4B9A6A20
:105720009A6A9A6A920508D59A6B9A6A120404D505
:1057300018B19A6A22F400429A62064B9A6A9A6AEF
:10574000D20558BF9A6A9A6A002042F47F429A6250
:105750000870704700ED00E070B5484B5B688AB098
:105760000D46C3F30803002686F31188BFF36F8F3D
:1057700002F07F41B1F17F4F11D102F00C010829F5
:105780000DD0110701D4054601260022033B8DF8F8
:105790000720032B6BD8DFE803F00455595D35462D
:1057A000F3E7364BDC6A14F0020460D1DA6A002AAF
:1057B00015DBDA6A520012D5AA6932F8021C4DF6DE
:1057C000027291420AD093F828200AB30DF1070221
:1057D00001212846FFF76CFF044600E02C689DF885
:1057E00007309BB92022294602A81AF093FA099B98
:1057F000002E3ED0C3F3080222B96FEA53236FEAAA
:105800004323099302A920461AF0B7F90AB070BDE4
:1058100093F829202AB10DF107010120FFF77EFF3F
:10582000DAE75A8D92B2002AD9D09A6A9A6A9A6AAD
:105830009A6A9A6A9A6A9A6A6FEA02426FEA12420E
:105840009A62CCE70DF107020021C2E70DF10701D2
:105850000020E3E7094B9A6A9A6A9A6A9A6A9A6AF6
:105860009A6A9A6A6FEA02426FEA12429A620024C6
:10587000B5E723F4FF7323F00103C2E700ED00E076
:10588000024A536943F010035361704700ED00E092
:10589000EFF30880EFF3098101B57246FFF75CFF73
:1058A00001BD00BF044800232021C2180133302B62
:1058B00082F80013F9D1704700E100E01EF0E6FD28
:1058C000202080F3118808484FF40261401880F3CB
:1058D0000988EFF314800221084380F31488BFF392
:1058E0006F8FFFF7F7FD000000630020064B9B68F9
:1058F000834207D1EFF3058323B1044A536843F091
:105900008053536017F07EBC4439002000ED00E066
:10591000024B034A0348012100F06EB80000042046
:1059200000000020EC4C0200826E054B203A1A6009
:10593000044A2021C3E901121846012100F066B88B
:105940006C1A002000000B15F0B51F4F00268E4288
:1059500001DB1046F0BD44689CB353B104F1FF3C39
:1059600014EA0C0F18D11F2C16D905681CEA050F74
:1059700012D1202C0568D0F808C0D2B20FD9B4F1EA
:10598000004F0ED8013CB4FA84F4C4F11F04640043
:10599000072A4CEA040406D96FF01502D9E7082457
:1059A000F6E73E24F4E725F01F05154345F0100502
:1059B00044F00104C7F89820C7F89C500132C7F89A
:1059C000A04001360C30C2E700ED00E0044B052298
:1059D000C3F89420BFF34F8FBFF36F8F704700BFA2
:1059E00000ED00E0BFF35F8F024B0022C3F894206C
:1059F000704700BF00ED00E010B5034C0123227892
:105A0000FFF7A2FF207010BD3E3A002008B5094AFA
:105A100000231278FFF798FF10F1160F02D0064A04
:105A2000072800DD08BDC2F89800C2F8A030013098
:105A3000F6E700BF3E3A002000ED00E01449086898
:105A4000082810B521D8FFF7CDFF124C4968002275
:105A5000904201F10C0105D10F4B1870FFF7B6FF12
:105A6000002010BDC4F8982051F80C3C23F01F030F
:105A7000134343F01003C4F89C3051F8043C43F046
:105A80000103C4F8A0300132E2E74FF0FF30E8E74D
:105A9000F84C020000ED00E03E3A00200EB40FB5D5
:105AA00005AB6FF0004153F8042B029003910648B8
:105AB000019302A9FDF71AFC029B00221A7004B0A0
:105AC0005DF804EB03B070473DFD01004FF020038B
:105AD000EFF3118283F31288BFF36F8F064901231E
:105AE000C1F840354FF08041C1F8783582F3118814
:105AF000BFF36F8F0020704700E0014020B1034BDF
:105B0000800143F001031847704700BF304902008D
:105B10004FF08043D3F84036DB072ED54FF01023EB
:105B2000D3F8043303F00703072B26D1144A0123CB
:105B3000C2F80435D2F80034002BFBD04FF010210E
:105B4000D1F8043323F0070343F00403C1F804330E
:105B50000023C2F804350A4AD2F80034002BFBD0E7
:105B6000BFF34F8F0749084BCA6802F4E062134342
:105B7000CB60BFF34F8F00BFFDE70020704700BF31
:105B800000E0014000ED00E00400FA0570B5214C92
:105B9000BFF35B8F2368BFF35B8FDA0706460D46C2
:105BA00001D50C2070BD012931D8BFF35B8F54E8BB
:105BB000003F43F0020244E800210029F7D1BFF37F
:105BC0005B8F9B07EDD4144831461AF04DF913480A
:105BD00006F120011AF048F9BFF35B8F75B154E864
:105BE000003F43F0040344E80032002AF7D1BFF33A
:105BF0005B8F0B4816F0F2FD0020D3E754E8003F1E
:105C000023F0040344E80032002AF0D0F6E7122023
:105C1000C8E700BF781A00205F3A00207F3A0020D2
:105C2000980900202DE9F843604FDFF884813E4653
:105C30004FF0FF324FF0FF33404616F0F5FDBFF353
:105C40005B8F3C68BFF35B8F14F0010455D0DFF825
:105C50006491594C594D5A484A46214618F093FED2
:105C600000283ED02022294620461AF042F800287B
:105C7000F1D04FF000094FF0FF324FF0FF33012019
:105C800000F00EFA00F108050221044628461DF036
:105C900041F93E23037042234370012128461DF041
:105CA00039F908230370412128461DF033F90546D0
:105CB00000F8019BB9F1000F16D0402200211AF024
:105CC00034F8BFF35B8F56E8003F23F0010346E84A
:105CD0000032002AF7D1BFF35B8F204600F064FE4C
:105CE000A6E74FF01F09C6E735491AF0BDF8203185
:105CF00005F121001AF0B8F8E3E7BFF35B8F3B68CA
:105D0000BFF35B8F9B0793D52A492D4819F000FDFF
:105D1000002811DBBFF35B8F3B6827492748BFF39F
:105D20005B8F13F0040F01F12002224B18BF0146D4
:105D3000104618F077FE04464FF0FF324FF0FF3365
:105D4000012000F0ADF900F108090221054648469E
:105D50001DF0E0F83E2303702223437001214846E2
:105D60001DF0D8F809230370212148461DF0D2F810
:105D7000034601309CB91F221A70FF21202219F01E
:105D8000D4FFBFF35B8F56E8003F23F0020346E8E1
:105D90000032002AF7D1BFF35B8F28469EE700222E
:105DA00007491A701AF060F8EBE700BF781A002074
:105DB00098090020184D02003F3A002019660200A1
:105DC0005F3A002070B5067D044676B983681D8869
:105DD00042F22602954245D00FD842F20102954286
:105DE0004FD042F225039D4213D02A4BD3F85431B1
:105DF00020461B69BDE87040184742F25E039D4291
:105E0000F3D1032108301DF0A4F8A06890F84010E9
:105E10002EE0032108301DF09CF8204612F0A2FD70
:105E2000BFF35B8F1C4B1A68BFF35B8F920707D5DC
:105E30000C26314642F2250019F0F2FF002070BD19
:105E4000BFF35B8F53E8002F42F0010143E80010DD
:105E50000028F7D1BFF35B8FD307E9D40F4816F0C2
:105E6000BDFCE6E7032108301DF073F8A068314659
:105E7000FFF78CFE0646204612F074FD3146284698
:105E8000DAE7DA7802F07F02DA701A7922F001029A
:105E90001A71AAE700000020781A00209809002053
:105EA00010B588B00C4C0D4900220023CDE9062323
:105EB00000230A22CDE90323CDE9013300934FF4F7
:105EC0008F62074B204616F0FDFA0649204608B0BF
:105ED000BDE810401DF030BE280D00208047002096
:105EE000255C00001266020003490448CA79C2EB2F
:105EF000C202FEF7F3BE00BF0000002039660200B8
:105F0000F7B516461F46044620B96FF00104204637
:105F100003B0F0BD01A918F01DFC1149024620464E
:105F200019F0D6FE04460028EFD1BFF35B8F0D4D6C
:105F30002B68BFF35B8F5B07E9D4CC3D0722294672
:105F40003846B047062806D807222146284619F0C9
:105F5000ECFEEC71DBE70723B0FBF3F0E871D6E76A
:105F600064600200CC0000202DE9F04188B09C79EB
:105F7000DDF838805D791E79DF7893F802C093F8F8
:105F800001E01B78B8F1000F0ED0CDE90638CDE95D
:105F900004CE1346CDE90267CDE90045084A17F063
:105FA0005DFC08B0BDE8F081CDE905E3CDE9037CF7
:105FB0001346CDE90156034A009417F04FFCF0E771
:105FC0003F66020063660200014816F073BD00BF21
:105FD0008002002010B5154CE379E3B1BFF35B8F6D
:105FE000134C2368BFF35B8F9B0701D400F088FD3F
:105FF000BFF35B8F54E8000F20F4804344E8003285
:10600000002AF7D1BFF35B8F10F480400CD0FFF76C
:10601000DBFF002008E001F00DF8E379002BDDD173
:1060200001F048F80028D9D010BD00BF00000020C2
:10603000CC00002030B4034608461A78012A13D059
:10604000022A26D072B9154A02F1100452F8045BF4
:1060500041F8045BA242F9D15B8812780A7043735D
:106060001B0A837330BC70470C4A02F1100452F8CB
:10607000045B41F8045BA242F9D15B6812780A70B4
:10608000C3F3072243731B0CC3731B0A827303748D
:10609000E8E730BC1122194619F03CBE87660200C1
:1060A00038B5054605481CF0D3FE044620B1002152
:1060B00008301CF0ECFE2575204638BDC80A0020CB
:1060C00070B502460B464FF02001EFF3118581F3C6
:1060D0001288BFF36F8F0C480021D0F83841C0F808
:1060E000381185F31188BFF36F8F24B9BDE8704074
:1060F0000120FFF7D5BF012304F108002375A1811A
:106100001CF0C5FE204670BD0000002070B504469E
:106110000F2C0D461046194605D80D2C12D9BDE896
:106120007040FFF7CDBF132C0CD10B481CF090FE34
:10613000044628B1002108301CF0A9FE0123237574
:10614000204670BD02460B460DB10448EEE7BDE89F
:1061500070400120FFF7A4BFF00A0020500A002081
:106160002DE9F04106460F4601F0ECFE0446B0B9B9
:106170003946304604F0C2FE054610B1284604F008
:10618000CDFE3946304603F029FD104B1B68DBB1CC
:106190001B6ACBB139463046BDE8F04118478378D9
:1061A000012B4FF0000304BFD0F8B450C0F8B43056
:1061B0004FF0130118BF1D461AF08BFD20461AF050
:1061C00043FD002DDAD1D3E7BDE8F081A41A002009
:1061D00038B583681A7872B9B3F80140204601F0E7
:1061E000DFFC054640B9084B1A8822B96FEA045013
:1061F0006FEA1050188038BD012101F0D9FC284603
:10620000BDE838401AF020BD8439002010B50121C6
:10621000044608301CF0A5FE2146034A0078BDE87C
:1062200010400A2319F0CDBEF84D020013B50C4CF6
:106230000146052294F8670001F0A2FE70B9094BEF
:1062400018689A8800909B79ADF8042094F867004C
:106250008DF806300422694601F092FE02B010BDAE
:1062600000000020DE480200F8B5064688790C469A
:1062700012F0BAFA244B834245D1204612F0BCFA00
:10628000204612F0B9FA214D0C2707FB0050436855
:106290009BB196B9204612F0AFFA07FB00500121DE
:1062A0004268D2E90030127A00F01F07B940400975
:1062B000D2B103EB800019F0B1FE204612F09CFA37
:1062C0000C2707FB00508368EBB1204612F094FACC
:1062D00078432E54204612F08FFA07FB0055A86829
:1062E000BDE8F84016F07ABAC94303EB8003BFF368
:1062F0005B8F53E8002F0A4043E800200028F8D1C4
:10630000BFF35B8FD9E7F8BDA00A00207C1A0020FC
:106310002DE9F84FDFF80081DFF800A1D8F80C3044
:106320003F486FF35233C8F80C3001F003FC451CB2
:1063300039484FF0FF324FF0FF33294617F01AF972
:1063400060B13849384840F68213524617F079FA5E
:10635000404080F311884FF0030002DFDFF8CC905B
:106360002D4EA9F59E77A9F11C0B15B916F092FEDA
:10637000D4E7F368C3F34533042B42D1337B002BBE
:1063800042D10022002348461CF067FD044660B954
:106390002749254840F61913524617F052FA404053
:1063A00080F311884FF0030002DF4FF0FF324FF00F
:1063B000FF33584616F038FAD7F8380120B112F0FA
:1063C000D1FA0023C7F8383120461CF071FDC7F818
:1063D00038012046FFF7F6FC98B1164816F0FEF992
:1063E000204612F009FA21461F20FFF73DFFD7F89B
:1063F000380112F0B7FA00232046C7F8383112F0FE
:10640000B1FA1436013DB0E7012BFAD130693838C2
:1064100001F0A8FEF5E700BF900200209866020098
:10642000A4020020CC660200D56602003C010020D8
:10643000F26602002001002038B50321044608302E
:106440001CF08FFDA368057818782146FFF70CFF34
:1064500025B10348BDE8384016F0C0B938BD00BFCB
:106460002001002038B50421044608301CF079FDD5
:10647000457800782146FFF7F7FE25B10248BDE8D0
:10648000384016F0ABB938BD2001002010B5C1E985
:1064900000239DF808300B720C4612F0ADF9034B47
:1064A0000C2202FB00335C6010BD00BF7C1A002090
:1064B0002DE9F0474FF0FF324FF0FF330646174803
:1064C000174D0F461CF0C4FC044600F1080A0021D9
:1064D0004FF0000850461CF0DAFC84F81480204687
:1064E00012F08AF94FF00C0909FB00504680204653
:1064F00012F082F909FB0050C0F80880204612F023
:106500007BF909FB00550321C5F8048050461CF0B7
:1065100001FD877006802046BDE8F087A00A0020B4
:106520007C1A002038B505460C4619B9FFF7C0FFA4
:10653000044698B140F635439D4209D12046FFF705
:1065400041FC054610B1204612F00CFA284638BD31
:10655000044821461CF09FFC0025F7E76FF0680512
:10656000F4E700BF3C010020F0B5154687B00C46AB
:1065700021B9FFF79DFF0446002848D001220021E1
:1065800068461DF0C1FB204612F036F9214F0C235E
:1065900003FB0070C0F808D020461CF089FC0146BF
:1065A0001D481CF078FC4FF4A0220023684616F02A
:1065B0003BF9064680B1194A19491A4840F231138D
:1065C00017F03FF91848314617F03BF9404080F387
:1065D00011884FF0030002DF204612F00DF90C2362
:1065E00058433E5C56B1204612F0BCF9092E0CBF50
:1065F0006FF06E006FF0040007B0F0BD15B12C60B5
:106600003046F9E7204612F0ADF92846F4E76FF07E
:106610006800F1E77C1A00203C0100209866020027
:10662000CC660200D5660200F66602007FB5437BA9
:10663000072B044657D1BFF35B8F4368BFF35B8FD3
:106640009B0400F104061BD4C37823B1274B93F8B5
:10665000D0301D0714D5022142F21600FFF728FFA3
:10666000054668B1022108301CF054FC23880380E1
:10667000294642F2160004B0BDE87040FFF752BF51
:10668000BFF35B8F6368194DBFF35B8F13F4805FBB
:10669000C3F3003111D195F8D130D8070DD50223BD
:1066A00000911A46204619F0A7FE30B980213046E5
:1066B00004B0BDE8704019F0B1BC95F8D0309A062E
:1066C00011D5D5F854319B689B070CD50DF10E01FF
:1066D00003A819F041FE30B9BDF80E20BDF80C102A
:1066E000204619F06CFE04B070BD00BF0000002011
:1066F0002DE9F043B0F80170694A6FEA0753118839
:106700006FEA13539BB2994205464FF0000608BF4B
:10671000168085B008BF012600F0DAFA2C781FFA3F
:1067200087F804B33C2C59D100F0D2FDBFF35B8F46
:10673000103050E8003F23F0400340E80032002AC8
:10674000F7D1BFF35B8F0020FFF770FD05460028EF
:1067500044D00473002101F02BFA284605B0BDE8AF
:10676000F0431AF071BA2B79023B012B05F10409B1
:1067700037D80722494602A819F0CCFA9DF808300C
:106780000622023B05F111010DF101008DF80830E0
:1067900019F0C0FA01238DF80030EB78012B19D1E4
:1067A00002A8FFF743FDEB78012B044611D100F05E
:1067B0008FFDBFF35B8F00F1100353E8002F22F031
:1067C000400243E800210029F7D1BFF35B8F1AF0A4
:1067D0007BF9DCB91F21404619F0D6FD05B0BDE8B4
:1067E000F083EB78012B04BF2E4B93F867404946AA
:1067F000204619F0F1FF0722014602A819F08AFA93
:1068000007224946684619F085FAC6E7204607225E
:1068100020F8887B02A919F07DFA2A7EEB7D43EAF5
:106820000223A4F89E30AA7E6B7E43EA0223A4F8DA
:10683000A4302A7FEB7E43EA0223A4F8A630EB784B
:10684000E3700022012B227317D10722694604F15D
:106850008F0019F05FFA00F03BFD217A114DC1EB7A
:10686000C1010722294404F1960019F053FAD5F822
:10687000DC305B0601D500F0D7FE0721204601F091
:1068800097F91EB10121204601F092F920461AF035
:1068900017FA2046FFF7CAFE20461AF0D5F99DE701
:1068A000843900200000002030B585B00D468DF8F9
:1068B0000700D0B949B90E499DF807000DF107024C
:1068C00004F0A0FA002005B030BD02900722CDF8F8
:1068D0000B0002A9284619F00CFA0028EBD09DF80D
:1068E00007002946FFF73CFCECE76FF01500EAE7EC
:1068F0003B00020029289ABF014B185C0820704712
:10690000B26702002DE9F041044600F10806304666
:106910001CF037FBB4F80C80B8F1010F05460CD819
:106920001C4A1D491D4840F60E5316F08AFF404090
:1069300080F311884FF0030002DF304602211CF083
:1069400010FB0746007819F02AFBC20706460CD454
:10695000104A1349114840F6125316F072FF404096
:1069600080F311884FF0030002DF05230D4A3878C9
:10697000214619F026FBB30707D52069A4F80C803F
:1069800010FA85F5A560BDE8F0812046BDE8F0412C
:1069900011F0E8BF9866020016670200D566020093
:1069A0002F670200884E020070B5037D012B04465C
:1069B00036D0032B63D18389032B0CD8324A334959
:1069C000334840F2B51316F03CFF404080F3118885
:1069D0004FF0030002DF042104F108001CF0C1FAAB
:1069E000FF22438806886275A289C6F30B009A428B
:1069F000E08203D0204611F0B5FF0FE001F0D0F89F
:106A000005460028F6D001F07BF9320B607521466F
:106A100028461AF0BAF828461AF016F9002070BD78
:106A20008389012B0CD8184A1849194840F60613D7
:106A300016F007FF404080F311884FF0030002DF9B
:106A4000022104F108001CF08CFA0546007819F0C8
:106A5000A6FA83070CD40C4A0E490D4840F60A13D7
:106A600016F0EFFE404080F311884FF0030002DF84
:106A7000094A28780623214619F0A3FABAE711F04B
:106A800071FF6FF01500CAE79866020016670200F2
:106A9000D566020048670200584E020010B5037D1B
:106AA000012B04460CD0094A09490A4840F65553BF
:106AB00016F0C7FE404080F311884FF0030002DF5C
:106AC0002046FFF71FFF002010BD00BF98660200A0
:106AD00076670200D5660200084A0346D2F85401E0
