:10100000C06B00203D6B0000B30002006D6B000060
:101010006D6B00006D6B00006D6B00000000000048
:101020000000000000000000000000001569000042
:101030006D6B000000000000C168000077EE010049
:10104000FD6A0000696C0100FD6A0000FD6A000095
:10105000FD6A0000FD6A0000FD6A0000FD6A0000F4
:10106000FD6A0000FD6A0000FD6A0000FD6A0000E4
:10107000FD6A0000FD6A0000FD6A0000FD6A0000D4
:10108000FD6A0000FD6A0000FD6A0000FD6A0000C4
:10109000FD6A0000FD6A0000FD6A0000FD6A0000B4
:1010A000FD6A0000FD6A0000FD6A0000FD6A0000A4
:1010B000FD6A0000FD6A0000FD6A0000FD6A000094
:1010C000FD6A0000FD6A0000FD6A0000FD6A000084
:1010D000FD6A0000FD6A0000FD6A0000FD6A000074
:1010E000FD6A0000FD6A0000FD6A0000FD6A000064
:1010F000FD6A0000FD6A0000FD6A0000FD6A000054
:1011000053B94AB9002908BF00281CBF4FF0FF316E
:101110004FF0FF3000F078B9ADF1080C6DE904CE66
:1011200000F006F8DDF804E0DDE9022304B07047C2
:101130002DE9F047089D0E4604468E46002B4CD103
:101140008A42944667D9B2FA82F252B101FA02F3A6
:10115000C2F1200120FA01F10CFA02FC41EA030E6F
:1011600094404FEA1C48210CBEFBF8F61FFA8CF79E
:1011700008FB16E341EA034306FB07F199420AD94B
:101180001CEB030306F1FF3080F01E81994240F210
:101190001B81023E63445B1AA4B2B3FBF8F008FB68
:1011A000103344EA034400FB07F7A7420AD91CEBBB
:1011B000040400F1FF3380F00981A74240F2068168
:1011C00064440238E41B40EA064000211DB1D440CB
:1011D0000023C5E90043BDE8F0878B4208D9002D04
:1011E00000F0EF800021C5E900060846BDE8F08761
:1011F000B3FA83F1002949D1B34202D3824200F20B
:10120000FF80841A66EB030301209E46002DE2D086
:10121000C5E9004EDFE702B9FFDEB2FA82F2002A2A
:1012200040F08E80A1EB0C064FEA1C471FFA8CF3AE
:101230000121B6FBF7FE07FB1E60260C46EA0046BE
:1012400003FB0EF0B04208D91CEB06060EF1FF3886
:1012500002D2B04200F2D080C646361AA4B2B6FB23
:10126000F7F007FB106644EA064400FB03F3A342D1
:1012700008D91CEB040400F1FF3602D2A34200F2AD
:10128000B8803046E41A40EA0E409FE7C1F12007DB
:1012900022FA07F48B40234306FA01FC26FA07F4EE
:1012A00020FA07F646EA0C064FEA134900FA01F85D
:1012B000B4FBF9FE300C1FFA83FC09FB1E4440EA24
:1012C00004440EFB0CF0A04202FA01F20AD91C19E8
:1012D0000EF1FF3A80F08B80A04240F28880AEF1A0
:1012E000020E1C44241AB6B2B4FBF9F009FB1044F8
:1012F00046EA044400FB0CFCA44507D91C1900F184
:10130000FF3670D2A4456ED902381C4440EA0E4024
:10131000A0FB02E6A4EB0C04B442F446B14659D358
:1013200056D0002D6ED0B8EB0C0364EB0904CB4013
:1013300004FA07F71F43CC40C5E9007400214AE7CF
:10134000C2F1200024FA00F10CFA02FC06FA02F3C2
:1013500026FA00F04FEA1C4741EA0306B0FBF7F11A
:101360001FFA8CF307FB110E300C40EA0E4001FB14
:1013700003FE864504FA02F408D91CEB000001F1D3
:10138000FF3832D2864530D902396044A0EB0E00D6
:10139000B6B2B0FBF7FE07FB1E0046EA00460EFBA6
:1013A00003F0B04209D91CEB06060EF1FF3818D243
:1013B000B04216D9AEF1020E6644361A4EEA014129
:1013C00037E72946284606E70646E4E61846F9E6E2
:1013D000F045A6D2BEEB020C66EB0303013899463A
:1013E0009FE7C646E9E7304690E74146CEE7D64656
:1013F00078E76444023845E7AEF1020E66442CE714
:10140000084603E72946E6E6704700BF00000000F3
:1014100073B53E4DD5F82431996811F0010121D101
:1014200001AA40F6034006F0E5FA0446002869D117
:10143000019B9B681B7893B9BFF35B8F2B4653F8D6
:10144000982FBFF35B8F02F00502BFF35B8F53E869
:10145000001F43E800200028F9D1BFF35B8F0198FB
:1014600018F092FA01AA002141F2030006F0C2FA34
:101470000446002846D1019B25489968082201317D
:101480001EF0DAFE019818F07FFA214601AA41F217
:10149000010006F0AFFA0446002833D101988368B2
:1014A0005A7885F83420D9789A7842EA0122EA8677
:1014B0001A7985F83520197ADA7942EA01222A87E1
:1014C0005A799B7942EA03236B8718F05DFA21462B
:1014D00001AA41F2020006F08DFA044690B9019B80
:1014E0000C489968402201311EF0A6FE09481EF002
:1014F00057FF019818F048FA95F840305A060BD477
:101500006FF01204204602B070BD00BF0000002042
:101510003C00002044000020214601AA42F20300C2
:1015200006F068FA04460028ECD1019BB648996899
:10153000082201311EF080FE019818F025FA21469C
:1015400001AA42F2020006F055FA04460028D9D159
:10155000019B9B68B3F80120A5F8CC2091B221B182
:10156000DA78AA48114622F042FD019818F00CFAE8
:1015700095F8406016F0200600F0208195F8603064
:101580001B0712D501AA002142F21C0006F032FA14
:1015900004460028B6D101988368D3F80120D3F817
:1015A0000530C5E92A2318F0EFF995F8A0309E061A
:1015B00023D50DF1020168461FF061F904460028A9
:1015C000A0D1042142F2240006F0B8F90646002812
:1015D00000F0FB800421083021F026FFBDF8003028
:1015E0000380BDF8023043802246314642F2240097
:1015F00006F000FA0446002884D195F8A0305C0675
:1016000010D501AA002142F22A0006F0F3F904469F
:1016100000287FF477AF019883685B7885F8E8301D
:1016200018F0B2F9082142F2010006F087F90446E9
:10163000002800F0CA800821084421F0F5FE95F842
:10164000A01011F0400F024640F2022308BF03230E
:1016500088074CBF43F02C0043F00C008B0695F834
:10166000A13048BF40F0400013F0090F95F86630F4
:1016700018BF40F4006003F00603CE0748BF40F0F7
:101680001000062B08BF40F4C07000211EF0DAFFE6
:101690002146002242F2010006F0ACF9044600287F
:1016A0007FF430AF95F8403098061ED4B5F8CC10D2
:1016B000D9B901AA41F2050006F09CF904460028B8
:1016C0007FF420AFB5F8CC3063B9019B9B685A78A2
:1016D000997842EA0122A5F8CC209A884B48114615
:1016E00022F085FC019818F04FF9082140F60140DE
:1016F00006F024F90446002867D00821084421F0A8
:1017000093FE95F8A030D907024673D53CA1D1E9E4
:1017100000011EF097FF2146002240F6014006F02E
:1017200069F9044600287FF4EDAE014601AA4FF6A0
:10173000014006F05FF9044648BB019818F024F90F
:10174000214601AA4FF6024006F054F90446F0B9CA
:10175000019B2F489968022201311EF06DFD01980E
:1017600018F012F995F885305B0710D501AA2146CB
:101770004FF6034006F03EF948B9019B25489968A9
:10178000012211441EF058FD019818F0FDF81FF0D9
:10179000E2FA044600287FF4B5AE07F0C7FE04461F
:1017A00000287FF4AFAEEB79002B3FF4ABAE042101
:1017B00019481EF0C5FE06F0E7FBA3E6022140F63D
:1017C0006D4006F0BBF8044610B96FF0680499E666
:1017D0000221083021F028FE0123037046702146C3
:1017E000324640F66D4006F005F9044600283FF405
:1017F000C5AE87E609484FF000518AE7AFF3008095
:101800009088000200800020A0000020D00000206E
:10181000850000208400002098000020108800022D
:101820002DE9F041D0E90B35866A5C193034A642C7
:101830008846174618D81C4DA3FB050118A3D3E909
:101840000023FFF75DFCA41B20F07F40C8F80000D8
:1018500013A3D3E90023A4FB0501FFF751FC20F0FB
:101860007F403860BDE8F0810F4C0DA3D3E9002321
:10187000A6FB0401FFF744FC05F1300120F07F4096
:10188000C8F8000006A3D3E90023A1FB0401FFF779
:1018900037FC20F07F403860BDE8F081AFF3008076
:1018A0008D49FD1A0700000000CA9A3B00000000A5
:1018B0002DE9F04FAD4C94F84A608FB006F0010668
:1018C000002800F03D81B6BB94F8292094F835300B
:1018D00094F8250004EB820204EB8303FF2100F05F
:1018E000030084F82610D2F82C80D3F8389014F036
:1018F000D7FD94F84A00410700F10E81B8F1000FBE
:1019000011D09A4841460FF04DF998F800305A0628
:1019100005D506210AF07AFD002800F0CA81934817
:1019200049460FF03FF998F8003013F00E0F40F0E1
:10193000DF80236A23B10C2630460FB0BDE8F08F5C
:101940000EF010FA8246002800F0BD810EF016FA63
:101950008346002800F0BC810FF02AFF05460028CE
:1019600000F0B381406F4FF6FF732B8505F11C0328
:10197000002800F0A48105F1680205F164010B93D1
:101980000AF050FDB5F86020794B22F4EF6222F0A6
:10199000070242F4887242F00102A5F8602095F82F
:1019A000392002F03F0262F07F0285F8392095F875
:1019B0007A2022F0070285F87A2095F83C2022F060
:1019C000070285F83C2095F8D82022F0070285F818
:1019D000D8204FF01B120027C5E916230622A5F8D0
:1019E000C020C5E912776F67A5F87870EF852F637F
:1019F00085F83B702F65A5F8C470A5F8C870A5F8E8
:101A0000D070A5F8CC70A5F8E47085F8E670C5F83C
:101A10000871A5F80C71A5F820710DF0DDFA95F8A4
:101A20003A21A5F8387122F0030285F83A2195F899
:101A30007A20A5F8407122F0180285F87A2095F8EE
:101A4000662185F8437122F0070285F8662195F832
:101A50008621C5F844A167F3041285F8862195F81C
:101A6000AE21A5F8647167F3C302C5E94A010021FC
:101A70000020C5E94C0185F8AE2185F8D970A5F89C
:101A80008471C5F8E070A5F8AC71A5F8B87110F0D4
:101A9000D1F9A5F8D20010F0D3F9D5F8BC11354A28
:101AA000A5F8D4000A40C5F8BC2110F0CFF995F88C
:101AB000C02160F3020285F8C02110F0CDF90B9B24
:101AC000236295F8C031C5F8C47160F3C503C4E959
:101AD00010ABC5E97477C5E97277C5E905772F7052
:101AE000ED6185F8C03115F017FD002840F0E38066
:101AF00094F824300121C3F342030DF133008DF833
:101B000033300AF011FE002836D1236A002B3FF44F
:101B100012AF0EF0FDFD0EE7C0F3C000324604F137
:101B20004B0114F027FEFF2884F826003FF4E6AEB0
:101B3000304614F0CFFCB8F1000F7FF4E2AEF2E6CD
:101B4000002E3FF4F8AE236A5BB193F8202042F0F8
:101B5000020283F82020236A93F82030D8073FF54B
:101B6000EAAE0FB0BDE8F04F0EF014BEA42F002077
:101B7000480148010000FFF699F80110024640466E
:101B80000EF0ACFE5849E46131230025A360A0FBB0
:101B9000010153A3D3E90023C4E90555257065600D
:101BA000E560FFF7ADFAB4F8489020610BF0D0FE85
:101BB0000746B9F1000F08D198F8005005F00F055D
:101BC000A5F10105B5FA85F56D0994F8240023699E
:101BD00065F3000010F0010584F8240032D00020E5
:101BE000424ADFF80C91049302250DF13408019369
:101BF00005920321CDE9020006943B460090CDF802
:101C00002080CDF81C902A460D950BF0D5FD41465D
:101C10000EF05EF900287FF478AF364A05924AF25A
:101C2000D8320092CDE90300CDE90100CDF81C9037
:101C3000CDF8208006943B46012203210D950BF040
:101C4000BBFD29E02C4A2D48049303F24713A9FB5E
:101C50000001069402951360912303FB0911244BA4
:101C60000793224B05934FF6FF7309924FF0020939
:101C700003930DF134081AA3D3E90023CDF834906F
:101C8000CDF82080FFF73CFA3B46CDE900504A46AC
:101C9000284603210BF03AFD41460EF019F90028C1
:101CA0007FF433AF94F84A3043F0010384F84A30AC
:101CB00042E6122640E60EF02BFD03263CE605F137
:101CC0006C00686757E6072636E658460EF05CF863
:101CD00050460EF04DF807262EE600BFAFF3008009
:101CE0008D49FD1A0700000000CA9A3B99040100C3
:101CF00079F000007D030100F82F0020002AE7841E
:101D000070B590F824308AB0C3F342030D46044600
:101D100001210DF1230016468DF823300AF004FD51
:101D20007178024628460EF0D9FD1F491CA3D3E95D
:101D30000023A0FB0101FFF7E3F923699842054660
:101D400021D21B1A00220192184A02930221184B39
:101D50000991A21ACA40A3FB0232CA4000230A44D6
:101D600009AE14490591CDE903330321D2B2069699
:101D7000009318460BF092FD31460EF0A9F848B9D1
:101D800025610AB070BD02D9C21A0023DBE700202A
:101D90000AB070BD0C200AB070BD00BFAFF3008068
:101DA0008D49FD1A0700000000CA9A3BA42F0020AD
:101DB000310CC33079F000002DE9F04FC38D468E11
:101DC0001E4490F80E310E4413F007038BB0044606
:101DD000B6B240F0A581B0F8E8909046A6EB0902B3
:101DE0001FFA82FB120400F10D8290F93920002ABB
:101DF0000F46C0F2358194F8E43084F8E53094F869
:101E0000842194F8853194F80C1184F80D119342D3
:101E100006D094F8863103F00703052B00F04882C2
:101E2000B14BD4F808511A68944204BF00221A60DA
:101E3000002D00F044812868002800F04081B4F8AB
:101E40001031B4F82AC04268C4F808216345B4F8D8
:101E50001221B4F8141100F01781B4F828C0EB83F4
:101E600016232B710023A5F806C02A8469842B77DA
:101E700029460DF08FFF0DF097FFA368002BC0F2ED
:101E8000F780608DB4F8105110FB0BF080B2B0FBFE
:101E9000F5F115FB01F39BB298421FFA81FAC0F0ED
:101EA000CE8005FB110140F2E243904889B203FB6A
:101EB00001F1A1FB00018AA3D3E90023FFF720F978
:101EC000A8EB0008E18D94F93930A9EB0609D1445B
:101ED0000F444F44E785002B40F2E24707FB05F62D
:101EE000C0F29581824A8349834840F60E331BF045
:101EF00062FC404080F311884FF0030002DF0027AE
:101F0000B3467E4AB4F814317D48B4F81211A18565
:101F10003244B2FBF6F2A4F8C62042F2107202FB81
:101F200003633044013BB0FBF6F0B3FBF6F6B4F8C4
:101F30001031638583B2881D8342A4F8C260A4F87F
:101F4000CE3002DD5B1A063B9BB2A4F8CA3094F88F
:101F50000E311B0744BF0023A4F8C4300221012026
:101F600017F05CFA00220221814601200AF0AAFA49
:101F700064494FF4F07220460AF034FA00F1030A83
:101F80005FFA8AFA604B00945246012100200BF060
:101F90009DFC30F002030CD0554A5C49564840F68F
:101FA0003D331BF008FC404080F311884FF00300E4
:101FB00002DF4E4EABFB066B49A3D3E9002330464C
:101FC0005946FFF79DF8089420F07F450694504845
:101FD00023690493A5FB0001072303FB05114D4B67
:101FE00007934D4B0593301A4FF6FE736BEB0101CF
:101FF00003934FF47A720023FFF782F84346CDE94A
:10200000015000975246012100200BF0D5FB30F023
:1020100002030CD0364A3D49374840F657331BF08F
:10202000CAFB404080F311884FF0030002DFB9F192
:10203000000F40F0378100200BB0BDE8F08F1B1A75
:102040002A4940F2E24003FB00F0A0FB010124A377
:10205000D3E90023FFF754F820F07F40804431E7B4
:1020600090F8D920002A3FF4C6AE80F8D930C6E6F1
:10207000E168626823F0004391422CBF8844904499
:10208000A360A8EB0308FCE6B4F82CC094457FF4E9
:10209000E4AE40F2E24C0CFB03FE42F2107C0CFB7F
:1020A00001EC0CF1FF3CBCFBFEFCB4F8C2E01FFAF3
:1020B0008CFCE6457FF4D1AE01232B71D8E60C4AA7
:1020C00016490D4840F692231BF075FB404080F303
:1020D00011884FF0030002DF2868B0E6AFF30080FC
:1020E0008D49FD1A070000001830002000CA9A3BF5
:1020F0008C58020048550200E8540200FF59620261
:102100007FC3C90138150020E51301006C59020096
:102110008D49FD1A8D13010081590100F858020004
:1021200001200DF047FE0746002800F0CF807448DC
:102130000AF022F90546002800F0C880714B1A68A1
:10214000002A00F0BB800DF053FE2B793A68D4F8DA
:102150000811516043F00303C4F8087100212B718A
:102160000C236B71E97194F81C312B72A38DD4F898
:1021700018211E44644BA3FB0232B4F81031A5F8B9
:102180000B30920AB4F81231A5F80920A5F80D30E9
:1021900094F80E21B4F81431A5F80F300636D4F8AF
:1021A000C431B6B261F30202A4F8E86084F80E21EB
:1021B000A5F81160BBB194F86621900713D494F888
:1021C000BF21D1070FD4D4F8D0219342D4F8C8212D
:1021D0007FD062B91A7902F00302032A00F08580E9
:1021E000C4F8C83105E0D4F8C821002A68D0D4F872
:1021F000CC311A682A601D602B68C4F8CC510BB929
:10220000C4F8D4516FF076000BB0BDE8F08F226CAB
:10221000A36C02FB1B33A36415F0D0F9054694F8B8
:10222000D800C0F3C20015F0CBF9054406FB05F554
:10223000364B94F81C2105F5742505F23F25A3FBC8
:102240000535AD0C07FB02F2A36C226505FB0AF015
:1022500072080344963A934228BF13462564A6EBBE
:10226000050B2B4DC4E911230023C4F8E030A0FB7B
:10227000050121A3D3E90023FEF742FF2249A8EB81
:102280000008D4F81801A1FB0030800A07FB00F019
:1022900019A3D3E90023A0FB0501FEF731FF20F0CD
:1022A0007F472EE60122022110460AF00BF9C2E612
:1022B000002384F88521A4F8C830B1E51C6042E70A
:1022C0002B60C4E97155C4F8CC5198E76FF06800F1
:1022D000B2E61968C4F8D011002A88D11A682A60B9
:1022E0001D602B68C4E9725589E7DA79032AF5D0B5
:1022F0000A2A7FF475AFF1E78D49FD1A0700000047
:10230000A4300020183000205917B7D183DE1B43BA
:1023100000CA9A3B000000002DE9F04F0B68D2F88C
:1023200000A01B6897B00C460B93037F00F11E01C1
:10233000C3F380130546174614A806228DF84730CC
:102340001DF07AFF94F81290B9F1FF0F12AE59D038
:1023500032460DF14701484613F036FE9DF84730EE
:1023600002338DF847302946032251F82E3B0A9359
:1023700007F1080007F1040B1DF05EFF07F11808D4
:10238000042205F12A0158461DF056FF052205F1E9
:102390003A0140461DF050FF404605210AF0C4F9BD
:1023A0007B7F95F83F1000F03F0060F305037B77DB
:1023B000C1F30403BB77B5F83480A7F80E80012879
:1023C0001FFA88F201F01F0305D91B3303F01F0326
:1023D0000B2B00D8E2B997F820300A986FF300036E
:1023E000012687F820302E71646829460DF0D2FC52
:1023F0002068267121460DF0CDFC0DF0D5FC17B0FC
:10240000BDE8F08F062214A930461DF015FFAAE79B
:1024100023680020586095F8363095F8370043EA75
:1024200000233B829AF8D830490961F3C503698ECD
:102430008AF8D83040F2E24303FB02F80D9115F020
:10244000BDF80C909AF8D800C0F3C20015F0B8F8A7
:102450000C9AB749024408FB02F202F5742202F218
:102460003F22A1FB0232920C7A6295F83120398A20
:1024700040F2E24302FB03F3BB634FEA5803963B8F
:10248000BB622B8FAB4AADF83A3018464244AA4B98
:10249000B2FBF8F2AAF8C62082B242F2107000FB3A
:1024A00002824344013A881DB2FBF8F2B3FBF8F311
:1024B000AAF8C2209AB28242AAF8CE2002DD521AAD
:1024C000063A92B25946AAF8CA200AF1DC00042260
:1024D0001DF0B2FE4FF480722B7FAA830B9A92F804
:1024E0002600C3F340120F920C9214F0D5FA014665
:1024F000062205F12B00002900F0E78005F12401F8
:102500001DF09AFEB9F1FF0F05F1250000F0E08003
:1025100014A906221DF090FE9DF84730AB77314696
:10252000062205F11F001DF087FE9AF8D830FA89BF
:102530006A863A8AAA86C3F3C203BDF83A2085F8B0
:102540003830EA8650460FF03FF92946B881E880D6
:1025500065680A980DF01EFCBB89EB8019232B716E
:102560000C9B2E68002B40F0C0809DF83C302B77F0
:10257000294630460DF00EFC0DF016FC97F845008C
:10258000B7F84050B7F84260012100F0070014F09E
:1025900027FE2E4406F5E17631188146674800266D
:1025A0003123CAF80830A1FB00015FA3D3E900235F
:1025B000CAF80460CAF80C60FEF7A2FD7B6A0D9AA7
:1025C000E56820F07F40A8EB030840F2E24303FBFC
:1025D000025502213246CAF81000012009F072FFAC
:1025E0000B9F38460EF098FA821C554B0097D2B2DA
:1025F000304601210BF06AF905F2B2450128A5EB3E
:1026000009057DD00B9B93F82430DB0765D4504639
:102610000FF0DAF8DFF82491A8FB098642A3D3E98A
:102620000023834631464046FEF76AFDA368CDF895
:1026300018A00BF10304A3F13A0B424B0793424B52
:1026400005934FF4E1730893DAF81030049320F007
:102650007F473E480023A7FB000103930723B8EB05
:10266000000003FB071166EB01014FF47A720023AF
:10267000FEF746FD2CA3D3E90023CDE90170A5FBAD
:102680000901FEF73DFDE4B220F07F4000905B467B
:102690002246012100200BF08FF830F002030CD00D
:1026A0002B4A2C492C4840F2C3131BF084F84040BD
:1026B00080F311884FF0030002DF0122022110464F
:1026C00009F000FF17B0BDE8F08F1DF0C0FD19E75D
:1026D000062200211DF0BBFD1EE70023012200930E
:1026E000184611460BF0F2F891E77B7F43F0400368
:1026F0007B77584613F060FA0123F8832B7737E78E
:102700000DF024FC0B9B83423FF47CAF104A13492D
:10271000114840F25F231BF04EF8404080F31188CF
:102720004FF0030002DF6DE78D49FD1A070000003E
:1027300083DE1B43FF5962027FC3C90100CA9A3B73
:102740004559010015590100815901008D49FD1AB3
:10275000805A02006C590200E8540200D85A020064
:102760002DE9F04F8FB0DFF8D8800A900DF13701D6
:102770000DF136000DF086FB324F9DF836A09DF826
:1027800037B00BF0E5F8D8F80040A4FB07542AA3B3
:10279000D3E90023814621462846FEF7B1FC0A9B77
:1027A0000B90D8F804000693274B0593002622A32C
:1027B000D3E90023A0FB0701CDE90766FEF7A0FCE3
:1027C0000B9B20F07F40CDE90360204823F07F473A
:1027D000A7FB00010723281A03FB071164EB010183
:1027E0004FF47A720023FEF78BFC0096CDE901705E
:1027F0004B465A46032150460AF0DEFF30F00204F1
:1028000016D1134A1348002319F0CCFF68B19DF884
:1028100037209DF836000094234603210BF056F82C
:102820006FF073000FB0BDE8F08FD8F80C00F9E737
:102830006FF08B00F6E700BF8D49FD1A070000001E
:102840001C38002000CA9A3B61A301008D49FD1A83
:10285000447B0B002C38002038B50F4D04460BF09C
:1028600077F8A9680BF076F86968B0FBF4F40444D3
:102870000A4807A3D3E90023A1FB0001FEF740FCAF
:1028800020F07F40844294BF0020012038BD00BF6B
:102890008D49FD1A070000001C38002000CA9A3B31
:1028A00010B506F029FE054C05490246204604F005
:1028B0003BFB2046BDE8104000F026BBD73B002084
:1028C0006C62020070B5064688B030B1014613480C
:1028D00008B0BDE870401AF06EBF114D114800F00D
:1028E00013FB1CF096F80FCD03AC0FC42B682360CC
:1028F0000D4900963346032203A806F051F820B193
:102900000A4800F001FB08B070BD032000F0E4FAB3
:10291000032000F0E7FA0648F3E700BF88620200F0
:10292000804B0200A8620200284C0200BE62020036
:10293000DA62020070B503788AB004460E4607AD2D
:10294000032B20D8DFE803F002191B1D114928468C
:102950001DF02AFC63780493A3780393E378029331
:1029600023790193637900930B4AA37905951E217E
:1029700030461AF02DFF0AB070BD0849E7E7084954
:10298000E5E70849E3E7084A0A2128461AF020FF4C
:10299000E0E700BFFB620200246302000263020062
:1029A00009630200136302001D63020000B589B0D1
:1029B0001EF071FC6946FFF7BDFF034800F0A4FA62
:1029C00009B05DF804FB00BF4763020030B589B071
:1029D0000C4615461EF05FFC6946FFF7ABFF4DB98C
:1029E00008490948224604F09FFA074800F08CFA8B
:1029F00009B030BD054904482B46224604F094FA3C
:102A0000F3E700BF56630200D73B00206C6302006F
:102A100000B589B01EF03FFC6946FFF78BFF03202D
:102A200000F05AFA032000F05DFA044800F06CFA56
:102A3000034B00221A6009B05DF804FB97630200A3
:102A4000F819002030B589B00D4604461EF023FC6D
:102A50006946FFF76FFF25B10C4800F055FA09B041
:102A600030BD012000F038FA012000F03BFA0848A0
:102A700000F04AFA074B0122022120461A601EF09C
:102A8000E5FA0028EBD00448E7E700BFA4630200A2
:102A9000B6630200F8190020C163020008B50848B7
:102AA00005F084FA20B1BDE80840064800F02CBAD1
:102AB000054806F053FABDE80840044806F000BD9A
:102AC000C5280000E66302005C01002038010020F8
:102AD000F8B5BDF818600948CF681C46154600F0E7
:102AE00013FA3319012B06DC22462946B8191DF0CA
:102AF000A3FB2046F8BD6FF00604FAE7FC63020072
:102B0000F0B50C4685B0054609481F46164600F04C
:102B1000FBF904230293E3680193BDF82830009386
:102B200032463B46214628461FF070FD05B0F0BDF9
:102B300012640200F0B5044685B00A481F460D46EF
:102B4000164600F0E1F901230293074B0193BDF80B
:102B50002830009332463B46294620461FF056FD5A
:102B600005B0F0BD2164020087080020F0B50446DE
:102B700085B00A481F460D46164600F0C5F9762373
:102B80000293074B0193BDF82830009332463B4631
:102B9000294620461FF03AFD05B0F0BD3964020019
:102BA00088080020F0B5044685B00A481F460D4647
:102BB000164600F0A9F902230293074B0193BDF8D2
:102BC0002830009332463B46294620461FF01EFD22
:102BD00005B0F0BD4E64020002090020F0B50446C5
:102BE00085B00A481F460D46164600F08DF90223AF
:102BF0000293074B0193BDF82830009332463B46C1
:102C0000294620461FF002FD05B0F0BD6F640200AA
:102C100000090020F0B5044685B00A481F460D465D
:102C2000164600F071F902230293074B0193BDF899
:102C30002830009332463B46294620461FF0E6FCEA
:102C400005B0F0BD93640200FE080020F0B5044614
:102C500085B00A481F460D46164600F055F9022376
:102C60000293074B0193BDF82830009332463B4650
:102C7000294620461FF0CAFC05B0F0BDB76402002B
:102C8000D53B002030B50D4685B008481C4600F005
:102C90003BF9EB6806491A7801A804F045F901A848
:102CA00000F032F9204605B030BD00BFC864020014
:102CB000D565020007B54B1E594259418DF80710E2
:102CC0009DF80710074B084A0848002908BF1A4614
:102CD000074904F029F9054803B05DF804EB00F05A
:102CE00013B900BFE9640200E1640200D73B002091
:102CF000F26402001FB5304B1B684BB92F493048B6
:102D000004F012F92E4805B05DF804EB00F0FCB8B1
:102D10004278022A1ED0032A2ED0012A47D1837876
:102D20008DF80C300222C37826488DF80D3003A9A7
:102D30001AF07AFC9DF80D309DF80C20224940B223
:102D400000901F4804F0F0F81D4800F0DDF805B0D1
:102D50005DF804FB83788DF80C3003A9C3781B4819
:102D60008DF80D301AF060FC40B29DF80D309DF8E2
:102D70000C2017490090E4E783788DF80C30C37875
:102D80008DF80D3003A9037912488DF80E301AF032
:102D90004BFC9DF80E30009340B201909DF80D3031
:102DA0009DF80C200C49064804F0BEF8CCE70B490E
:102DB000034804F0B9F8A5E7F81900200D650200F2
:102DC000D73B0020684C020028650200A44C02009A
:102DD0005A650200F44C02008C650200C3650200D3
:102DE0002DE9F0470446D1F8008000680E461546EC
:102DF00020F04FFF0346206873B121796279D0F843
:102E000010C0012312F0010F03FA01F7DCF80030C3
:102E100008D123EA070306E001682348BDE8F0472C
:102E20001AF0C9BC3B438768CCF8003042F400720A
:102E30003B689847014660BB4FF4004725EAE575BB
:102E400040F2E730C5FB07014FF47A720023FEF72A
:102E500057F94FF0010A81460F462068356803692B
:102E600021791B68012D88BFB8FA88F50AFA01F1AB
:102E700088BF6D09194214BF85F001032B467BB151
:102E80008368DB689847484639461AF049F9A846EE
:102E9000E3E7A36822790548BDE8F0471AF08BBC48
:102EA00083681B69EEE700BFD8650200F765020082
:102EB000024903484FF47A72FFF792BF001A0020CC
:102EC000E44D0200024903486422FFF789BF00BFB6
:102ED000FC190020F04D0200014B1860704700BF44
:102EE000001A0020014B1860704700BFFC19002039
:102EF00008B500F079F8034800F006F8BDE808408E
:102F0000FFF7CCBD6E660200024610B509490A48BB
:102F100004F00AF8094B08481C681DF04FF9A36833
:102F20005B69024623B120460349BDE810401847BB
:102F300010BD00BF7E660200D73B0020041A0020AF
:102F40002DE9F047054690B083685B6C03B1984764
:102F50004022002168461DF07AF9AB689C6924B1D3
:102F6000402269462846A04704461A491A481A4F83
:102F7000DFF86890DFF868A003F0D6FFE846054662
:102F80000026781918F8012B494603F0CDFF0136C9
:102F9000062E054414D11048FFF7B6FF062C03D1C6
:102FA0009DF80030FF2B11D00E490B486B4622468E
:102FB00003F0BAFF0848FFF7A7FF10B0BDE8F0879D
:102FC0007819514603F0B0FF0544DAE76846FFF789
:102FD00091FEF2E783660200D73B00201E630200E9
:102FE000996602009C66020037B5002501952F48BE
:102FF0002F4C19F0B5F82060002841D0284601F088
:1030000045FB024600283BD1206883681BB19B6CBE
:103010000BB128499847206883689B6A03B1984799
:10302000254821F00CFA2548FFF76EFF20688368D9
:103030001B6D13B101AA04219847019B2BB90021F4
:1030400040F6CD401AF06CF8F0E71D48FFF75CFF42
:1030500020688368DB6CABB91A48FFF755FF20681E
:103060008368DB6CA3B91848FFF74EFF20688368BC
:103070001B6D9BB91548FFF747FF1548FFF744FF45
:1030800003B030BD0122082198470028E7D0E3E7CC
:103090000122102198470028E8D0E4E76A46012180
:1030A00098470028E6D10B48E5E700BFCC66020050
:1030B000041A0020412F000040420F00D666020093
:1030C000E3660200EE66020000670200126702007B
:1030D0003B6702002967020030B50A4C0A4491425E
:1030E00000D130BD11F8013B58400309E35C83EA8D
:1030F0000013DDB2C3F30313E05C80EA0510C0B235
:10310000EDE700BF516702000B6801330B60014B14
:103110001B681847F801002007B50B46002102463E
:103120000191034801A900F0F9F803B05DF804FB30
:103130000931000030B585B0CDE901010446002514
:1031400001A90548039500F0E9F8DDE9023098424D
:10315000B8BF255405B030BD91D701002DE9F84F17
:10316000B0F8189019F00808044693460DD00129CC
:103170000CBF49F0100949F02009A0F818908BF312
:103180001188BFF36F8FBDE8F88F09F00709022996
:1031900007D120461AF043FB0028F0D00128238BEA
:1031A0004ED16769218B002F15DA256821F00701C0
:1031B000C4E9008841F0010121830026218B01F040
:1031C000070ACA4502D0A368002B5AD10DB9002EB8
:1031D00071D0002356E001F007035A1F012A1ED8C0
:1031E00021F00701062B256889B2C4E900880AD1BD
:1031F0003DB1638B2A46126801339BB2002AFAD193
:10320000638341F00201218320461AF008FB064641
:103210000028D3D0238B43F020032383CDE7042B56
:103220000CD121F0070189B2218320461AF0F7FA68
:1032300005460028C1D041F0200121830025BCE7CC
:10324000032809D1226923F00703166843F0060317
:10325000238300252F46B1E7042806D1226923F0F5
:103260000703566843F00403F2E7052806D12269F4
:1032700023F00703966843F00503E9E700252E468F
:10328000E8E7012341F0080121838BF31188BFF3A4
:103290006F8FFBB985BB16B11F492046B0474FF071
:1032A0002003EFF3118B83F31188BFF36F8F238B10
:1032B00023F008032383238BDA0625D523F010039C
:1032C00023830121B4F8189009F0070900297FF43D
:1032D0005EAF54E7A1680029DCD0D1F80090D1F8A6
:1032E00004B03B4652462046D847B9F1000FD1D032
:1032F0004946D9F80090F2E729463B465246204617
:103300002D681AF0A8FAC5E713F020011EBF23F0BC
:10331000200323830221D5E783D801002DE9F04F54
:1033200091B08B46029092461C4600259AF8000008
:1033300008B928465DE325280AF1010707D0029B5A
:10334000594698470028C0F25483013512E21822EA
:1033500000210AA81CF07BFF9AF80130252B78D0B9
:1033600000221046964694461646394617F8013B09
:103370002B2B00F09D8000F29480202B00F09B808E
:10338000232B00F09B802EB19DF8306046F00406A0
:103390008DF83060BCF1000F05D09DF8306046F02C
:1033A00008068DF83060BEF1000F05D09DF8306042
:1033B00046F010068DF8306028B19DF8300040F0DE
:1033C00020008DF830002AB19DF8302042F04002F4
:1033D0008DF830209DF8302002F04400442803D1BD
:1033E0006FF386128DF830209DF830202A2B42F0A2
:1033F00080028DF830207BD19DF8312042F001020F
:103400004B1C8DF831201A782E2A9DF831200CBFE4
:103410000121002161F341028DF8312074D15A78E5
:103420002A2A6AD0013300210A26184610F8012BF7
:10343000A2F13007092F40F28E809DF830200E91C6
:10344000C2F3400040EAD17161F341028DF83020AF
:103450005AE00AF102078DF833309DF83130D90770
:1034600040F1498154F8049BB9F1000F07DA9DF847
:10347000302042F004028DF83020C9F100095A07CB
:1034800040F1428154F8048BB8F1000F80F2418181
:103490009DF831306FF341038DF831304FF0FF3834
:1034A00037E12D2B0CD0302B7FF46DAF01225CE780
:1034B0004FF0010C59E74FF0010E56E7012054E799
:1034C000012652E70CFB0202303A33461E4616F83C
:1034D000010BA0F13007092FF4D9994293D09DF840
:1034E00030100D92D20F62F341018DF830108AE74F
:1034F0000B4600224FF00A0CE8E79DF8312042F01D
:1035000004028DF8312002331F4617F8012B6C2A74
:1035100041D025D8682A2BD06A2A46D04C2A4CD0D4
:103520001F4617F8012B9DF831308DF83320782A8B
:1035300000F2D980572A4DD8412A03D0453A022AB1
:1035400000F2D1809DF83230042262F302038DF83C
:10355000323001239EE006FB01213039034664E747
:10356000742A26D07A2ADBD19DF8313006220DE06C
:103570005A78682A9DF8312006D1012161F3C602EC
:103580008DF831209F1CCCE71346022262F3C6035C
:103590008DF83130C5E75A786C2A9DF8312001D179
:1035A0000421EBE713460322F0E79DF831300522B2
:1035B000ECE79DF831300722E8E7BDF8303023F41E
:1035C000F04323F0020343F4804343F00203ADF8D9
:1035D0003030A6E7A2F15801202900F2848001A032
:1035E00050F821F0A9360000E7360000E736000069
:1035F000E7360000E7360000E7360000E736000057
:10360000E7360000E736000045350000E7360000E9
:10361000A936000069360000453500004535000038
:1036200045350000E736000069360000E736000047
:10363000E7360000E7360000E7360000B13600004C
:10364000A9360000CD360000E7360000E73600005E
:10365000CD360000E7360000A9360000E73600004E
:10366000E7360000A93600009DF83210012003F073
:10367000780360F30201402B8DF8321002BF9DF8F1
:10368000301041F001018DF83010632A31D1003B38
:1036900018BF01239DF83020C2F340010B4363F3B0
:1036A00041028DF83020D8E69DF832100220DEE786
:1036B0009DF8322003F07803A3F14000032161F369
:1036C000020243428DF832204341E3E79DF8322065
:1036D000032113F0780F61F302028DF8322014BF3A
:1036E00001230023D6E79DF8303043F001038DF825
:1036F00030300023CEE79DF93020002AB4BFDDF83A
:1037000034904FF0FF39BAE69B077FF5C7AEDDF87E
:1037100038809DF831100023CDE90D339DF832300B
:1037200003F00703012BC1F3C30138D1CB1E042BD7
:1037300022D8DFE803F003090921210054F8043BF3
:10374000DA17CDE90A3206E0073424F00704F4E87A
:103750000223CDE90A239DF8303013F0030654D03C
:1037600002983B46524659461AF040FC0028C0F2E7
:1037700040810544BA46D9E554F8043B01294FEA93
:10378000E372CDE90A3205D19DF828300A9300236F
:103790000B93E0E70229DED1BDF92830D0E7022BF8
:1037A00023D1CB1E042B13D8DFE803F0030A0A123F
:1037B000120022680A920023201D0B930446CAE7D8
:1037C000E01D20F00700F0E80223CDE90A23F5E729
:1037D00054F8043B0A9301294FF000030B93D3D014
:1037E0000229B8D1BDF82830D0E7042B07D107341F
:1037F00024F00704F4E80223CDE90A23ABE7032B06
:1038000004BF54F8043B0A93A5E79DF833007828D9
:10381000B0D8622822D825283FF491AD5828A9D1E4
:103820000DF126030093DDE90A0104AB0CAA1AF09E
:1038300097FB8246B8F1000F0DF126000CDB9DF8D6
:103840003020A0EB0A036FF3861298458DF83020E4
:1038500002D9A8EB03030D9380463DE06338152899
:1038600088D801A252F820F0E93800004D39000054
:103870007537000075370000753700007537000098
:103880004D390000753700007537000075370000AE
:1038900075370000A739000075390000793900003C
:1038A0007537000075370000C1380000753700001B
:1038B0007539000075370000753700007539000054
:1038C000B8F1000FDDF828A00ADB414650461CF095
:1038D0007CFC0AEB00080026BAF1000F0CD149E786
:1038E00050461CF06BFCF4E70A9B8DF81030002664
:1038F0000DF1100A0DF11108A8EB0A0306B101330E
:103900009DF83220D00668D5023352060D9948BF83
:103910000E9A0B4448BF9B18B9F1000F76DD9DF855
:103920003020A9EB0309C2F38003039353076DD43E
:10393000500661D546B1029B59463046984700284B
:1039400057DB039B01351E46302356E01E070FD47C
:1039500013F0100618BF2026DDE90A23002BBFF65E
:103960005FAF524263EB4303CDE90A232D2657E7AD
:103970002B26F1E7002653E70A9840B30DF1260302
:1039800000930CAA04AB00211AF0EAFABDF8323019
:1039900003F0EF0343F4F04343F010038246ADF825
:1039A0003230002646E70A9B07293FF6E3AEDFE800
:1039B00001F00C04060C08080C0C1D70DAE61D80E2
:1039C000D8E6EA17C3E90052D4E61D60D2E6DFF874
:1039D000C8A006460AF105088EE7110748BF013363
:1039E00093E7184603935946029B98470028039B88
:1039F00004DA11B0BDE8F08F20234D444A46002A76
:103A0000A5EB090109F1FF39EBDC0D4636B1029B4C
:103A10005946304698470028EBDB01359DF8323097
:103A2000D90601D41A0706D5029B5946302098477B
:103A30000028DEDB01359DF83230DB0607D59DF826
:103A40003300029B594698470028D2DB01350D9E72
:103A50002E44731B002B16DC0298434652465946EF
:103A60001AF0C4FA0028C4DB0544A944A9EB0503F5
:103A7000002B7FF77FAE029B5946202098470028F5
:103A8000B7DB0135F2E7029B594630209847002802
:103A9000AFDB0135DDE700BF616702001FB507241A
:103AA0000294044C0194BDF8184000941EF0AEFD41
:103AB00004B010BD0409002010B5084C86B024786D
:103AC0008DF81740012402940DF117040194BDF8FC
:103AD000204000941EF09AFD06B010BD0B09002096
:103AE0002DE9F7430F4606460821C06ADFF85090DB
:103AF0001AF02BFC3C68241A80463C6004EA090555
:103B0000AC4203D8002003B0BDE8F08308236A4626
:103B1000214630461AF073FB0028F4D1694630463E
:103B20001AF01DFC40B1BDF80230BDF804203C6025
:103B300005EA090513441D44A4EB0804E0E700BFAF
:103B40000000FFFF2DE9F04F044689B00D4600F15B
:103B50001407384620F077F9284618F001FBA062D8
:103B6000002800F01F8183681B699847E06228B92C
:103B70006FF01505284609B0BDE8F08FA06A83688C
:103B80001B6998470368013B1F2BF1D8A06A216885
:103B900005AA1FF084FD0028EAD1A589002DE7D0F1
:103BA000069BB5FBF3F203FB1255002DE0D1E38930
:103BB000012BDDD9E36A009593F804804FF0FF33C1
:103BC0004FF0FF32384618F0D9FCE06A08211AF0AD
:103BD000BCFBA9460646E3891FFA85FA534545D83A
:103BE000E3894B4500F0D38053450BD1009908235E
:103BF0004246891B20461AF03AFB18B9E08969460B
:103C00001AF098FB69462046FFF76AFF0546002830
:103C100040F0BF80009BDFF8E491636003EA090392
:103C2000A360D4E9011399420ED3082301AA2046C8
:103C30001AF0E5FAC0B901AB13F8012B904540F03A
:103C4000C18001300828F7D16368E0891B0C1B0490
:103C5000694600931AF06EFBA389009942462046FC
:103C60001AF005FB002826DA054692E0A1892B040C
:103C7000891B13FA81F142460823204600911AF06D
:103C8000F6FA78B1E08969461AF054FB09F10109A6
:103C900000990823424620461FFA89F91AF0E7FAEC
:103CA00000289DD0013596E7BAF1000F00F0A28000
:103CB0006FF01C056DE045D06368334400934FF608
:103CC000FF780099A3898AB29B1B9A4215D3616839
:103CD00020461AF0F1FA0028C6D16368474AA18944
:103CE00013400B44A3EB460363601340A3602046DC
:103CF0001AF027FC002840D0B6E7082303AA204684
:103D00001AF07DFA0028AFD103A920461AF027FB4C
:103D100038B1BDF80C30434503D1BDF81030002B4D
:103D200043D0009B33440093CBE75B1A42462046C6
:103D30001AF09DFA002897DB08D0E26AA36812689F
:103D40001344A360D4E901318B42EED86168A389A2
:103D500001EB46029A42CDD1DFF8A080A36801EAC8
:103D600008029342C6D020461AF0A6FA00287FF433
:103D70007BAF636803EA0803A360A089A388A0EB74
:103D80004606B34205D120461AF07AFB6CE76FF085
:103D90002C05384618F06AFC002D7FF4EBAE0123A9
:103DA0002374E7E66FF00505E4E66368E0891B0C21
:103DB0001B04694600931AF0BDFA009920461AF0D8
:103DC0007BFA97E701A920461AF0C9FAD4F804B0A3
:103DD00080B1009ABDF808A0BDF80610E06A02EABA
:103DE0000902A26051441AF0B0FA02445A45A26096
:103DF0003FF45AAFABEB0603636012E70000FFFF2E
:103E00002DE9F04F1E46037C89B004468946904652
:103E1000002B00F0B280C26A082110461AF095FA11
:103E20003146824610461AF090FAA389A3EB8A0322
:103E30009E42074600F2A4801EB1B8F1000F00F0C8
:103E40009F806368039304AA03A92046DDF80CB0A1
:103E50001AF02BFB054600285AD1BDF810304B450F
:103E600005D06268039B9A42EDD1DEB950E004A907
:103E700020461AF074FA0028F3D0BDF8143086B149
:103E80009E420FD1BDF812004FEA1B4109040144C4
:103E90003346424620461AF0C0F9002802DC0546A7
:103EA00036E0ABB3002F37D104F1140A4FF0FF32E4
:103EB0004FF0FF33504618F061FBDFF8CCB0E389D8
:103EC0009D4257D0D4E90123F9188A4227D3ADF88F
:103ED0001A3006A8FF238DF81E30ADF81890ADF803
:103EE0001C601AF01EFA3246414620461AF0A4FA27
:103EF000034638B906A920461AF0B1FA002814BFC3
:103F0000034633460193504618F0B0FB019B1D4613
:103F1000284609B0BDE8F08F5744BFB2C4E7082176
:103F2000E06A1AF012FA4FF6FF73ADF8183000236A
:103F3000ADF81C301318ADF81A30A38902EA0B0251
:103F40001A44121A626006A81AF0EBF906A9204674
:103F50001AF085FAE089211D1AF0ECF9636803EA8A
:103F60000B03A36020461AF0ECFA03460028C9D1DF
:103F70000135A4E76FF01B03C4E76FF00C05C7E73A
:103F80006FF01505C4E700BF0000FFFFF0B5104B50
:103F9000104C114D1B1B9B106B43104DD5F824C0CA
:103FA00000259D4202D16FF08500F0BD676867452E
:103FB0000AD3266946B197F802E00779BE4503D1D6
:103FC0003346BDE8F040184701352434E9E700BF27
:103FD000700C00204C0C0020398EE338081A0020A9
:103FE0002DE9F047174D184C184BDFF864A0641BFF
:103FF000A41006460F4690465C434FF000094C451E
:1040000003D16FF08500BDE8F0876A68DAF82430E4
:104010009A4212D3AB6983B190783179884205D145
:10402000424639463046BDE8F04718475279012AE2
:1040300003D1424639463046984709F101092435F3
:10404000DDE700BF4C0C0020700C0020398EE338F7
:10405000081A00202DE9F8430E4D0F4C0F4B641B3E
:10406000A41006460F4690465C434FF000094C45AD
:1040700002D16FF085000BE06B691BB909F10109F2
:104080002435F4E742463946304698470028F5D1B2
:10409000BDE8F8834C0C0020700C0020398EE3380A
:1040A00007B583788DF800300379427943EA02231B
:1040B000ADF80230C378684603F003038DF804308E
:1040C00001F0CCFF10F1780F04D018B1002003B03C
:1040D0005DF804FB9DF8000002F046F810F1780F3F
:1040E00001D00028F2D1024B012083F8B900EEE79D
:1040F000081A002008B509480378C3F341130A33AE
:1041000050F823303BB100F1080200F1100198474C
:10411000C043C00F08BD1846FCE700BF081A0020C6
:104120002DE9F04FA94EB36985B007460D4690467C
:1041300063B93B7803F01F03012B00F08E80022B44
:1041400000F0F08043B16FF0150002E098470028BE
:10415000EFD105B0BDE8F08F7A787888D8F80030D4
:10416000092AF0D801A151F822F000BF95410000C2
:10417000474100004741000047410000474100001F
:10418000A3410000AD41000047410000DB410000B9
:10419000E54100000020012258701A7002232B60B4
:1041A000D7E7C0B201F048FF0020D2E7020A131F90
:1041B000012BC8D9072AC6D8736AC0B200211C785F
:1041C000002CC0D05E78964203D1884200F01E8158
:1041D00001312344F3E71B781EE196F8BA201A70E8
:1041E000012319E1C7B28DF80F7077B14FF0FF08C6
:1041F000746A0025C14623787BB9F3691BB10DF1C0
:104200000F0103209847002D9DD0714808220021FE
:104210001CF01DF886F8BA70C6E76378042B0DD041
:10422000052B0ED0022B06D194F805809DF80F3097
:10423000434508BF012523781C44DCE794F803902C
:10424000F9E79DF80F304345F5D1B9F1000FF2D1F0
:104250002046FFF725FF0546EDE796F8BA30002B1C
:104260003FF471AF746AB7F804C097F8049023461E
:104270001A78002A3FF467AF5978022903D11879D8
:10428000484500F2CB801344F2E70C442178002922
:104290003FF459AF6378042BF7D1A3789C45F4D150
:1042A000072B96BF9B19002393F8BB30137097E739
:1042B00097F8028006EB0903FF27BA464FF0000B80
:1042C000009323783BB9F36913B159460720984707
:1042D000002028603DE76378042B04D0052B11D023
:1042E00023781C44EDE7A77894F803A0B945F7D1EB
:1042F000D045F5D1B9F1070F02D8009B83F8BB80F8
:10430000A346EDE7B945EBD1D04507D0A0780190A1
:1043100000F0ACFC019801F051FFE1E72046FFF707
:10432000BFFEDDE73879D8F800408DF80F0030F097
:10433000800C1ED0274A284B28499B1A9B104B43C0
:104340004FF0000E73453FF4FEAE116A92F81CA0C8
:104350004FF0000804395FFA88F9CA4503D80EF116
:10436000010E2432EEE708F1010811F8389081457A
:10437000F1D17B78012B12D0032B31D0002B7FF4AD
:10438000E2AEBCF1000F04D096F8BA30002B3FF437
:10439000DAAE214601F0CCFE00206070FEE67B889C
:1043A000002B7FF4D0AEBCF1000F04D096F8BA30E9
:1043B000002B3FF4C8AE01F09BFEF369002B3FF4E5
:1043C000F3AE0DF10F0109209847EDE6081A002021
:1043D000C31A00204C0C0020700C0020398EE338EA
:1043E0007B88002B7FF4AFAEBCF1000F04D096F8B1
:1043F000BA30002B3FF4A7AE01F052FEF369002B58
:104400003FF4D2AE0DF10F010820DDE7022AC8F813
:1044100000307FF4E0AE5B882B60C5E67878D8F892
:1044200000200A283FF432AF0B283FF441AF0028A8
:104430007FF489AE1070507029608AE62DE9F14F43
:104440002A4B2B4CE41A2B4BA410042805460E468D
:1044500003FB04F41FD12848082200211BF0F7FEBB
:10446000DFF8989099F8B930BBB100F01DFC042D2D
:1044700013D11E4F4FF00008444525D0D7F820B087
:104480004FF0000A3A7F5FFA8AF39A4213D808F194
:1044900001082437F0E70528E2D0144F4FF0000858
:1044A000A04515D1154B1B6AE3B13146284601B032
:1044B000BDE8F04F18470BEBC3030AF1010A187966
:1044C00001F07CFE0028DDDA002389F8B930E4E74A
:1044D000FB681BB1324629463846984708F1010867
:1044E0002437DDE701B0BDE8F08F00BF4C0C0020A1
:1044F000700C0020398EE338C31A0020081A0020FF
:1045000013B5134C237DC3B9E268A168019201ABD6
:1045100080201AF02DF90199A268E3680A445B1A19
:10452000A260E3603BB92369E2889A4203DD9B06FF
:1045300001D10123237502B010BD00231A4619468C
:104540008020237502B0BDE8104001F05DBE00BFC1
:10455000081A002030B585B00B46002102460191B3
:1045600000285DD1002B3AD108220DEB02011AF090
:104570003CFC002804DA802001F092FD05B030BD3B
:104580002C4C9DF809306370BDF80A306380BDF88B
:104590000C30A380BDF80E309DF808202270802BCF
:1045A000E38006D9D10904D1802001F079FD0020F3
:1045B000E2E721492361C4E90213002121750BB10F
:1045C000D309DBD0FFF796FD0028D4D0E288236919
:1045D0009A42D4BFE260E360FFF792FFCEE7154C4A
:1045E000D4E90215002D01AB04DC1AF0FEFB002813
:1045F000C4DAC0E72A461AF0F8FB0028D4DB019998
:10460000A268E3680A445B1AA260E360002BB5D19C
:1046100004F13803A360FFF76DFD0028DCD1AAE7A1
:104620008028ABD1034BDA68002AD5D11B7D002B43
:10463000D2D1A3E7081A0020401A0020054B064AF1
:104640009A62064ADA62064A1A63064A58629A6110
:1046500000207047081A0020214100008D3F000013
:1046600055400000E13F0000074B10B593F8B840FB
:1046700024B900F0AFF918B1FFF7E0FF002010BD3A
:104680004FF0FF30FBE700BF081A00202DE9F74389
:104690000446384D38484FF0FF324FF0FF3317F0E3
:1046A0006DFF95F8B860002E41D134482C62E86166
:1046B00001F0C0FE01F082FC041E39DB00F01CFB9F
:1046C000041E35DB40236846ADF802308DF80460E7
:1046D0008DF8006001F0C2FC041E29DB80276846CB
:1046E0008DF8007001F0BAFC041E21DB244930462D
:1046F00001F08CFE041E1BDB2149384601F086FECA
:10470000041E15DB1F4F204C204BE41BA4105C4300
:10471000B44214D1002001F027FD041E08DB8020E4
:1047200001F022FD041E03DB012385F8B8300024CC
:10473000114817F09BFF204603B0BDE8F083D7F87F
:1047400020904FF000083A7F5FFA88F39A4202D82F
:1047500001362437DCE709EBC30259F8331010792E
:1047600001F054FE08F101080028ECD04FF0FF34AE
:10477000DEE700BF081A0020080A00203D440000C0
:10478000554500004C0C0020700C0020398EE33899
:1047900030B51C4B89B003AA03F11005186859689D
:1047A000144603C40833AB422246F7D11B7823706A
:1047B0000822002101A81BF04AFD12220021124804
:1047C0001BF045FD082101A81AF01EFB002816DD8C
:1047D0000D4901AA002012F8013B08AC04EB1314A8
:1047E00003F00F0314F8144C0C7008AC2344013090
:1047F00013F8143C4B70082801F10201EBD1024878
:1048000009B030BD82670200573C00202DE9F04F0F
:104810006B4A6C4B9B1A6C4A87B09B1053430446FF
:10482000019300254FF0011BA9462E46AA46207889
:1048300020B9664B02349C4217D0F2E76378052B0F
:1048400005D8DFE803F083040383072BA24623780F
:104850001C44ECE7E378002BF9D1A3789BB9584AC4
:104860000199994204D14FF0FF3007B0BDE8F08FB5
:1048700051688C4202F124020AD1514A242606FBD7
:104880000326B36833B909F101095FFA89F9DEE754
:104890000133E5E7494620469847F4E7002EE2D089
:1048A00000230121327F9342DDD2326AA77802EBE6
:1048B000C3021079874201D00133F3E70127E07882
:1048C00094F805C000F003008DF81400207940EA48
:1048D0000C20ADF8120094F9020000285FFA87F866
:1048E00028DA07F1100001FA00F010EA0B0F29D1C5
:1048F00068F07F008DF8100004A8CDE902321AF0AC
:104900005CFADDE902320121E0B99DF81030A370B4
:1049100013F0800F1CBF08F110085FFA88F81371BC
:104920000B4615BF01FA08F8BB404BEA080B4BEAEF
:10493000030B8CE701FA07F010EA0B0F02D18DF898
:104940001080D9E70137102FB9D1B5E7032D1DD15C
:10495000FFF71EFF074668B11BF030FC804648B1E8
:104960001B481BF02BFC804504D142463946A01C55
:104970001BF062FC23786FF00201E218091B04EBC4
:104980005303D14213D50135EDB260E7002DF1D1CB
:10499000BAF1000F3FF467AFA4EB0A038AF80230C4
:1049A000C3F307238AF803308AF80490EBE74FF04B
:1049B000000002F8010C13F8010902F8020DE0E70B
:1049C0004C0C0020700C0020398EE3384B0C00207A
:1049D0008267020008B50448FFF718FF0028024864
:1049E00018BF002008BD00BF9C0B002010B5094B6C
:1049F00000211A461C78844205D15C681CB148200D
:104A000000FB012010BD0131042903F14803F1D15D
:104A10000020F7E7CC1A00202DE9F34150F8303C94
:104A200010F8346C1033044610D1036950F8282C68
:104A300099073CD502BB13F0040304D11A4619466A
:104A4000304619F095FE002344F8303C54F8303CD1
:104A500010330ED054F8205C5DB154F8247C54F827
:104A60001C8C1FF0D6F900284CD02E4821461FF090
:104A700047FB02B0BDE8F08150F82C1C01AB30467A
:104A800019F076FE10B16FF01503DDE7019A54F8C6
:104A90002C3C134444F82C3C54F8283C9B1A44F812
:104AA000283C54F8243C134444F8243CCEE750F806
:104AB0002C1C01AB304601F01FFC0028E3D1019D06
:104AC00054F82C3C2B4444F82C3C54F8283C5B1BF9
:104AD00044F8283C54F8243C2B4444F8243C002D52
:104AE000B1D0304601F0ACFCB5FBF0F303FB105540
:104AF000002DA8D154F8283C002BA4D0304601F05A
:104B000043FCA3E744F8200CA4F1180017F024FE9E
:104B100054F8303C8C33ACD0424639463046A84736
:104B2000A7E700BF700D00204B1E012B73B5064692
:104B30000D460FD8FFF75AFF044668B9012D09D179
:104B400001AB01220DF10301304601F0D5FB019BC1
:104B5000002BF5D102B070BD1FF05BF904F13401F8
:104B600008B1012D05D1084602B0BDE87040FFF73D
:104B700053BF034802B0BDE870401FF0C1BA00BF88
:104B8000700D00202DE9F74F064601911546984615
:104B900019F040FE044600285FD14FF02003EFF3E8
:104BA000118A83F31188BFF36F8FDFF8B4B04FF031
:104BB000480909FB04F700220023584617F0F2FDCC
:104BC00068B9DFF8A09009EB0704636813F1100FD0
:104BD00014D10193584617F0BFFD019B06E0013444
:104BE000042C0BF1480BE4D16FF00B038AF311880E
:104BF000BFF36F8F184603B0BDE8F08F019B2061B3
:104C0000C4E902350C9B63610D9BA3616FF00F0338
:104C100009F80760C4F844806360304601F010FC76
:104C200058B1304601F00CFCB5FBF0F202FB105518
:104C30001DB1636C43F00403636418F0020F07D0E6
:104C40003437094809EB07011FF05AFA0023CDE772
:104C5000304601F099FB0346C8E76FF00F03C9E740
:104C6000E81A0020CC1A0020700D002010B54FF07B
:104C70002003EFF3118483F31188BFF36F8FFFF7E5
:104C8000B5FE50B14368103307D16FF08B0343601A
:104C900000F1340103481FF033FA84F31188BFF3A5
:104CA0006F8F10BD700D00202DE9F041104CDFF822
:104CB000448004256FF08B074FF02003EFF311863B
:104CC00083F31188BFF36F8F6368103305D104F14C
:104CD0003401404667601FF013FA86F31188BFF372
:104CE0006F8F013D04F14804E6D1BDE8F08100BFBB
:104CF000CC1A0020700D002070B50A4C0A4E002519
:104D0000314620461FF0F3F90122A4F118001146A4
:104D100001351FF06CF9042D04F14804F0D1002096
:104D200070BD00BF001B0020194A000070B504468A
:104D30000E4601791048154619F041FDB0B163786F
:104D4000212B0ED0222B08D0202B12D1296807222C
:104D50000C381BF071FA002070BD638800F8053C28
:104D6000F9E70C38072328603360F4E76FF012008E
:104D7000F2E76FF01500EFE7F01B002008B50146E1
:104D8000034819F02DFD10B1012300F8033C08BDC4
:104D9000F01B00200169012381F843300B6833B117
:104DA00091F841301BB1024820311FF0A9B970477A
:104DB000700D00200169012381F842300B6833B186
:104DC00091F840301BB1024820311FF099B970476B
:104DD000700D002038B5056995F8960078B195F802
:104DE00097306BB985F84030D5F8880019F040F954
:104DF00005F13001044603481FF082F9204638BD12
:104E00000020FCE7700D0020012310B5144682F845
:104E1000403002F1080017F09FFC23683BB194F882
:104E2000423023B1094804F120011FF069F9D4F898
:104E30008830D3E900329A4206D004F130010348A9
:104E4000BDE810401FF05CB910BD00BF700D002020
:104E500073B5144602F144060A1E054604DDD4F873
:104E60008400314619F004F9012384F841302368A5
:104E70003BB194F8433023B1074804F120011FF0FF
:104E80003FF9064B00930194012340223146284606
:104E9000FFF778FE02B070BD700D0020514E00008B
:104EA0007FB5836E5B681B6A1E7D0546304619F030
:104EB000B1FCD0B9A86D4FF4806203A919F0F7F8DE
:104EC000044690B18306A5F1300308BF00F1FF341A
:104ED0000193074B03990093224602233046FFF7C4
:104EE00051FEA86D214619F0FEF804B070BD00BF58
:104EF000094E000010B504690023C4F89C300F4B24
:104F0000C4F89800596804F19C02A1B9C3E90022D1
:104F10004FF0FF32002104F108001FF068F804F19F
:104F2000200007491FF0E3F804F1300005491FF0A5
:104F3000DEF8002010BD0A605A60E9E7F01B00208F
:104F40003BE80100A14E000030B585B0A123056902
:104F50008DF80430202342688DF80530002385F851
:104F600095300220ADF80A00106AADF80C10ADF8CB
:104F700008300079ADF806300A2201A919F0F8FBD3
:104F8000054C95F8953023B901201FF058FA013CE3
:104F9000F7D105B030BD00BFA186010010B50446B1
:104FA000083017F0D9FB0D4B002118689A889B79BF
:104FB000C4F88C00A4F89020A4F89610A4F840102F
:104FC00084F8923084F8941084F8931004F144002B
:104FD0004022BDE810401BF03AB900BFCE4B0200A2
:104FE00038B50D4601461C4819F0DAFB0446B8B145
:104FF0000246691E52F898395B68052910D8DFE827
:1050000001F0100F0310151914F8021C19B91B6ACE
:10501000187BFFF71DFF012304F8023C04F8583CFD
:1050200038BDBDE838401046FFF7B8BF012304F88B
:10503000013CF5E714F8011C0029F1D014F8020C2A
:10504000002104F8011C0028EAD01B6A187BBDE887
:105050003840FFF7FDBE00BFF01B002037B5094DFB
:105060000949002400944FF0FF334FF48062284632
:1050700017F0E4FC054928461EF0D1FE204603B097
:1050800030BD00BF700D0020A04D002093670200CE
:10509000084B30B51C68084B01461A6800239C4237
:1050A00001DC002030BD1046103205788D42F9D069
:1050B0000133F4E77C4F020024030020084B1B68F7
:1050C00010B50C462BB1FFF7E3FF28B1206000209C
:1050D00010BD6FF00C00FBE76FF00100F8E700BFB8
:1050E0002403002030B589B00C4615460190FFF727
:1050F000CFFFB8B14368029383682268C068CDE9E6
:1051000003350023CDE90623059319F062FC60B155
:10511000074901AA1EF0C7FA079808B9059B236042
:1051200009B030BD6FF01500FAE76FF01200F7E735
:10513000D7E90100104B2DE9F0411C6805460E46E9
:105140001746ACB14FF0FF324FF0FF330B4817F06A
:1051500015FA63683246D3F8088029463B46204654
:10516000C0470446054817F081FA2046BDE8F081A3
:105170006FF00104F9E700BF001C0020F4090020D3
:1051800000230360044B5A6812B9C3E9000070475A
:1051900010605860704700BFF81B0020014B18607A
:1051A000704700BF001C002030B585B000230546C5
:1051B000CDE9023301904FF0FF330C484FF0FF323E
:1051C00017F0DCF90A4B1C6834B1636820461B6891
:1051D00001A998472468F7E7284600F085F80446B7
:1051E000024817F043FA204605B030BDF40900200C
:1051F000F81B00201FB5CDE9010103924FF0FF33EA
:105200000A484FF0FF3217F0B9F9094B1C6834B166
:10521000636820461B6801A998472468F7E703489C
:1052200017F024FA002004B010BD00BFF4090020DC
:10523000F81B0020024B0022C3E90022704700BF88
:10524000F81B0020024B0022C3E90022FFF7F2BF47
:10525000041C00202DE9F34107460E4609B1002346
:105260000B601E4CDFF878800025444508D31D4BA9
:105270001C680CB1143CC4B9284602B0BDE8F081EA
:10528000216801AA384619F0CBFB60B125B90EB1EF
:10529000019B3360254606E029682068002219F04A
:1052A000BFFB0028F3D11434DFE7216801AA384698
:1052B00019F0B6FB60B125B90EB1019B33602546EC
:1052C00006E029682068002219F0AAFB0028F3D123
:1052D00014F1140FD0D06469CBE700BFBC4A0200C0
:1052E000344B0200041C0020F8B51A4C1A4F064635
:1052F0000025BC4206D3194B1C680CB1143C9CB968
:105300002846F8BD1EB9E3684BB91434F1E72068AC
:105310000022314619F084FB0028F4D1F5E79847C4
:10532000002D08BF0546F0E736B9E36863B914F10C
:10533000140FE5D06469E0E720680022314619F0D7
:105340006FFB0028F1D1F2E79847002D08BF054612
:10535000EDE700BFBC4A0200344B0200041C0020F1
:1053600010B5064C23783BB9FFF76CFF00F064F8EA
:1053700008B90123237010BD0020FCE76944002018
:105380002DE9F047048FDFF8ACA0013498B08046D7
:105390008946A4B200F10806651EADB2B5F5004F0E
:1053A00045D04A2305AA2946304619F0DAF904F512
:1053B0007F543F34A4B20746214601230DF10B026E
:1053C000304619F0CEF9002F014603DC002803DC3B
:1053D0002C46E1E7002816DCB8F83830AB4209D19A
:1053E00042466B1E22F8383F4FF4004102233046FC
:1053F000FEF706FD2946304619F058F92146304699
:1054000019F054F9E4E718AB1F44002307F84C3CAB
:105410005246CDF8009003AB05A80396ADF81040B6
:1054200019F037FB0028D3D018B0BDE8F087002072
:10543000FAE700BFF9EA01007FB5012369460320BE
:105440000193FFF73BFE0446002836D102AA01A9CA
:105450000320FFF747FE10F1130F04462DD038B19B
:105460000C3405D0404080F311884FF0040002DF77
:105470000399B1F5803F23D2009A0023956818461E
:10548000084485429CB203D30133082BF8D11C4653
:105490000D4D5368AB602846D368EC82A982EB635C
:1054A00019F0C1FB044640B9084E6E602846FFF76C
:1054B00067FE28466E60FFF771FE204604B070BD9F
:1054C0006FF02004F9E700BF0C1C00202803002027
:1054D000F8B505464FF02003EFF3118683F31188EA
:1054E000BFF36F8F094B1C685CB1094FD4E90132DF
:1054F000002D08BF13460BB1387898472468002C5C
:10550000F4D186F31188BFF36F8FF8BD4C1C0020D7
:10551000541C0020084B10B51C685CB901221A60AD
:10552000064B93E807001AF0BBFE2046BDE810408A
:10553000FFF7CEBF10BD00BF38030020541C002071
:10554000F0B585B06E4601460546304619F087FB3A
:1055500096E80700144C84E807002078274600B33B
:10556000124B002119606B1C0DD0114816464FF4E8
:10557000004C104A0023E6FB0C01FBF7C1FD0121A2
:10558000281A1EF03CFF17F04DFB0120FFF7A0FF8B
:1055900097E807001AF071FEFFF7BCFF17F0FAFB5F
:1055A000207805B0F0BD00BF541C00203803002057
:1055B0003F420F0040420F00084B70B5C31A0D4622
:1055C00007499B10044659430648402219F068FBDE
:1055D0002B4601462046BDE870401847741C002049
:1055E000B76DDBB61848020073B50C4C0C4A40236B
:1055F000041B00930D460B460A49A410614306465E
:10560000094819F079FB011E05DA30462B4602B035
:10561000BDE87040184702B070BD00BF741C002088
:1056200069ED0100B76DDBB618480200002270B5C5
:1056300001210446104601F0AFF9002001F07AF98B
:105640000F4815F0F1FA0F4B984215D115F0FCFAFE
:1056500026690D49304618F031F900280BDB246922
:1056600009490125356404F11C0018F027F90028C8
:1056700001DBE564002070BD6FF00400FBE700BFB4
:10568000C15600000000AD0BA44F020001460C23E0
:1056900009484B4370B5C418D4E90E560022403374
:1056A000A263184419F0E9FA2DB132462B4603489B
:1056B000BDE87040184770BD741C002018480200F7
:1056C00010B1012804D07047034B1B6C5B0701D15C
:1056D000FFF7DCBF704700BF741C002008B54FF017
:1056E0002003EFF3118183F31188BFF36F8F124A08
:1056F000136843F0020013F0010310600CD04FF068
:105700008042D2F80C34D2F80C2413F0010303D0F9
:105710000A4819F0B2FA012381F31188BFF36F8FA1
:1057200023B1BDE808400020FFF7B0BFBDE8084046
:1057300001201EF066B900BFC41C0020B41C00206C
:105740007FB500220123CDE9022304ABCDE9043368
:10575000094ACDF800D06B46CDF804D019F0FDFA17
:10576000002805DB4FF480420023684617F01AF842
:1057700007B05DF804FB00BF87ED0100094BBFF3E4
:105780005B8F53E8002F22F0020143E8001000284D
:10579000F7D1BFF35B8FD30702D4012015F062BAB3
:1057A000704700BFC41C0020024AC3B21C2003FB88
:1057B00000207047741C0020094BBFF35B8F53E837
:1057C000002F42F0010143E800100028F7D1BFF399
:1057D0005B8F930702D401201EF013B9704700BFFE
:1057E000C41C0020094BBFF35B8F53E8002F22F04D
:1057F000010143E800100028F7D1BFF35B8F930746
:1058000002D4012015F02EBA704700BFC41C00203E
:105810002DE9F0413949BFF35B8F0746012251E87A
:10582000003F41E800200028F9D1BFF35B8F33B976
:10583000334934484B60CB608A6018F052F87B1EC5
:10584000012B2FD8012F07D14FF08043D3F81C3400
:1058500003F00303012B25D01EF0DBFA044618B930
:10586000294B1B78002B41D14FF02003EFF3118619
:1058700083F31188BFF36F8F0124DFF890804FF01E
:105880008045D5F81834D5F81824D2030CD503F088
:105890000303012B01D0012F06D10CB386F311882D
:1058A000BFF36F8FBDE8F081ACB1304601F0F6F880
:1058B000D5F81835002BE4D1D5F80421002AE0D022
:1058C000C5F80431D5F804310123C5F81835C8F8F6
:1058D0008031AB60D5E70021212017F021FCE7E7FC
:1058E0004FF080430222C3F80423DBE74FF08043EC
:1058F0000222C3F808230646BFE700BFC81C0020E9
:10590000641C0020901C00204145002000E100E0C4
:1059100000F07F03082B42B204D010F0780F01D0C2
:1059200000207047002A00F00F0300F0080005DA9D
:1059300058B9084800EB43104C30704738B9054857
:1059400000EB431000F5B6707047034870470348FA
:10595000704700BFCC2200201824002038250020EA
:10596000014601481EF0F2BA940A0020014902489B
:105970001EF0C6BBF4220020100E002013B50B4809
:1059800015F072FA00240A4815F0B4FA4FF0FF330C
:105990004FF4806207490848009417F04FF8074910
:1059A00007481EF0A4FB204602B010BDB8670200F5
:1059B000B04F0200C0510020100E0020D95C000042
:1059C000F422002002480022002316F091BE00BFFE
:1059D000940A002010B5054CFFF7F4FF20B1011D1B
:1059E00020461EF0EDF9F7E710BD00BFA809002022
:1059F00007B500230E48002201A916F0C1FC90B1A2
:105A0000FFF7E8FF0A480022002301A916F0B8FCBE
:105A100038B90198042340600374FFF7A1FFFFF732
:105A2000A5FF002001E00198406003B05DF804FB91
:105A3000A8090020817870B506460846FFF768FF80
:105A40000B06F578044612D5002D43D1FFF7D0FFA1
:105A5000034600283ED00122A57702740322027378
:105A60009C60FFF77DFFBDE87040FFF77FBF4DB141
:105A7000012D2FD1FFF7BCFF034658B3657705749E
:105A80000573EDE7FFF7B4FF20B3B278124B12F0C5
:105A9000800F02F0080111D041B1D3F8A836E360BD
:105AA00001230374022303738460DAE702F00F0218
:105AB000142101FB0233D3F80836F0E711B1D3F813
:105AC000A837ECE702F00F02142101FB0233D3F8F0
:105AD0000837E4E770BD00BF00700240022810B52F
:105AE00011D8094B1C5CFFF783FF60B100220274E0
:105AF0000472FFF735FF054B93F824301BB1BDE866
:105B00001040FFF733BF10BDB5670200CC22002064
:105B100010B50F49BFF35B8F01F12003002253E85A
:105B2000000F012803D143E80024002CF7D1BFF374
:105B30005B8F0BD1CC690C31204617F040FF7830D9
:105B400004D12046BDE8104017F014BF10BD00BFBF
:105B5000CC220020F0B5064689B01422002103A80B
:105B60001AF075FB3378013B052B21D8DFE803F0F1
:105B70007A0314146A1603238DF814300024FFF7F7
:105B800037FF0346A0B1047400F10802DDE9050106
:105B900082E8030018461DE00423EDE7B1780846CB
:105BA000FFF7B6FE837A044623B1013B022B43D9AB
:105BB00009B0F0BD0B06F57813D5002DF8D1FFF72D
:105BC00017FF03460028F3D00122A57702740322B1
:105BD00002739C60FFF7C4FE09B0BDE8F040FFF718
:105BE000C5BE55B1012DE3D1FFF702FF03460028E2
:105BF000DED0657705740573EBE7FFF7F9FE07461E
:105C00000028D5D00123037402230373846004F1B8
:105C10000C01B0781EF00EF8134AE168B2F88C322D
:105C20008B4206D95B1AA2F88C3215F0F1FF384688
:105C3000D0E7A2F88C52FAE7304609B0BDE8F04050
:105C4000FFF7F8BE01A815F0BDFF9DF80530052B44
:105C500004D19DF8043013F0600FA9D0034B0593D5
:105C600001248CE702248AE7CC220020382400207B
:105C700038B5002464F07F00C0B2FFF749FE01345C
:105C800019F084F8082CF5D10F4D0024E0B2FFF78D
:105C90003FFE036903B90561013419F077F8082C58
:105CA00005F14005F2D1094C04F5A67019F06EF823
:105CB000D4F87C3213B9064BC4F87C32054819F08D
:105CC00065F8002038BD00BFCC200020CC22002089
:105CD000CC1C0020382500202DE9F043A74CDFF82C
:105CE000A08285B00746FFF76DFE10B905B0BDE88C
:105CF000F08394F82530027C00F104093BB9002AB6
:105D000000F08580494640461EF05AF8EBE7042A29
:105D1000F8D8DFE812F07C0005000201180141010B
:105D2000037B8568032BEDD8DFE803F0023C595E66
:105D30006E690822002130461AF089FA914B924888
:105D4000D3F880243270D3F884247270D3F8882476
:105D5000D3F88C1442EA01227280D3F89024D3F84D
:105D6000941442EA0122B280D3F89824D3F89C34E8
:105D700042EA03230822F3803146EA601AF05CFA13
:105D80002B68687A002198473378DB0906D1F388BD
:105D900023B1A4F88C3215F03BFFB3E70023A4F83D
:105DA0008C32AFE76B7F002BACD02B7F002BA9D0C0
:105DB00000266E774FF0FF3274482E774FF0FF3396
:105DC00018F0F7FF6B6901936B68CDE9023601A902
:105DD000687A15F01BFD6D4818F0EDFF92E72B680F
:105DE0000121687A98478DE7AB7A6BB9EB7F5BB995
:105DF00066484FF0FF324FF0FF3318F0DAFF15F02E
:105E000037FF624818F0D7FF2B680221E9E7027AD2
:105E1000042A3FF677AFDFE802F05B0325697500DF
:105E200015F0A4FC054600287FF46CAF15F0E2FBEA
:105E3000BFF35B8F5649012351E8002F002A03D19D
:105E400041E800300028F7D1BFF35B8F7FF45AAFF1
:105E500041F8105C41F8085CE0696361143917F09F
:105E600040FD4FE7002565F07F00C0B2FFF750FD11
:105E7000037A13B1407A16F0F1F80135082DF2D10A
:105E800094F854311BB194F8550116F0E7F8002549
:105E9000E8B2FFF73DFD037A13B1407A16F0DEF861
:105EA0000135082DF4D194F874321BB194F87502C1
:105EB00016F0D4F8012015F03BFC012384F82530BE
:105EC0002368002B3FF41EAF00210220984719E7FA
:105ED000002584F8255016F04DF8FFF719FE2368C9
:105EE000002B3FF40FAF29460420EFE7002B3FF4CF
:105EF00009AF16F057F82368002B3FF403AF0021D9
:105F00000520E3E72268002A3FF4FCAE002B3FF4B3
:105F1000F9AE002106209047F4E607F110054FF096
:105F2000FF334FF0FF32284618F043FFFFF7A0FE83
:105F3000284618F040FF57F8283C002B3FF4E2AE0B
:105F400000210120C2E794F874327BB1012584F866
:105F5000895284F88852FFF74BFD38B10D4A057419
:105F600005738260FFF7FCFCFFF700FD57F8283C43
:105F7000002B3FF4C7AE00210A20A7E7CC22002067
:105F8000A809002000700240D02200200423002035
:105F9000EC220020382500201DF080FD15F0EAFFDE
:105FA00015F01EFBFFF716FDFFF762FE1DF06FFDFB
:105FB000014815F0E5FBA5E6555B000038B51A4D24
:105FC00095F824405CBB05F138001DF03CFF2046ED
:105FD000FFF7EAFB2246E8610121272000F0DCFC04
:105FE000124815F0CDFB124B98421AD11DF04FFD0F
:105FF000FFF73EFE044610B9012385F824300D4B0F
:106000001B680BB1FFF7B2FC4FF08043D3F8383474
:10601000DB0702D50020FFF761FD204638BD0024D4
:10602000FBE76FF00404F8E7CC220020555B00008A
:106030000000AD0B940A0020074B93F824203AB1DE
:1060400093F82530002B0CBF6FF012000020704732
:106050006FF01200704700BFCC2200200F4B93F866
:10606000243010B50146B3B104782046FFF750FC48
:1060700010B96FF0150010BD44720B798372498816
:106080004160230702D44B1E0B42F2D120461DF083
:10609000CCFD0020EFE76FF01200ECE7CC220020EF
:1060A000124B93F8242010B50146CAB193F825305D
:1060B000B3B1FFF72DFC0446A8B1837A012B12D0AF
:1060C00007D9023B012B07D96369A3610020E06077
:1060D00010BD15F0D5FDF7E7084615F045FDF3E7CF
:1060E0006FF01200F4E76FF01500F1E7CC2200200A
:1060F00038B50E4B93F82420054682B193F825302D
:106100006BB1FFF705FC68B115F008040AD1284609
:1061100015F04CFD284615F0F3FF204638BD6FF012
:106120001200FBE76FF01500F8E700BFCC2200205B
:1061300038B50C4B93F8242005460C4662B193F811
:1061400025304BB1FFF7E4FB48B141B1284615F0CB
:1061500013FD2070002038BD6FF01200FBE76FF0D8
:106160001500F8E7CC220020F8B5134F97F824303B
:106170000446BBB1FFF7CCFB0546B0B1230705D4FD
:10618000204615F013FD204615F0BAFF2E7A7EB991
:1061900097F8250001232B7218B1204615F05EFFF9
:1061A0003046F8BD6FF01200FBE76FF01500F8E71E
:1061B0006FF07700F5E700BFCC22002038B5114B17
:1061C00093F8242001469AB193F8253083B1FFF764
:1061D0009FFB054678B1037A83B10846002415F089
:1061E00011FF2846AC7718F0D1FD2C72204638BD3F
:1061F0006FF01200FBE76FF01500F8E76FF0770023
:10620000F5E700BFCC2200202DE9F043DFF8DC8069
:106210001C4698F8243085B0074689461646002B60
:106220005DD098F82530002B59D003065AD5FFF7DA
:106230006FFB0546002855D0037A002B52D04FF053
:10624000FF334FF0FF3208F1380018F0B2FDAB7F9A
:106250004BB108F1380018F0AEFD6FF00A0420468B
:1062600005B0BDE8F08316B9EB7F03B1EE77AB7AEA
:10627000BBB95EB1B8F80A30B34207D96A68B6FB59
:10628000F2F302FB13630BB90123EB7715F000FD6A
:10629000B84206D015F0ECFC154818F08CFD00242F
:1062A000DDE70123AB774FF0000801A93846CDE9BF
:1062B0000196CDF80C8015F0A9FA0E4B984207D044
:1062C00085F81E800CB1C4F800806FF0040402E071
:1062D0000CB126604446064818F06DFDBFE76FF02C
:1062E0001204BCE76FF01504B9E700BFCC22002010
:1062F000042300200000AD0B2DE9F0411D46204B8A
:10630000174693F824200E46002A33D093F8253000
:1063100083B3030631D401B97FBBFFF7F9FA044612
:1063200058B3037A4BB34FF0FF3316484FF0FF32A8
:1063300018F03FFDE3689F42B84628BF984646B92B
:106340003FB905B12B600F4818F035FD0020BDE8BE
:10635000F081A1694246304619F06EFFA3694344BB
:10636000A361E368A3EB0803E360002DEBD0C5F85D
:106370000080E8E76FF01200E9E76FF01500E6E74C
:10638000CC2200200423002070B51E4D95F8242057
:10639000034682B395F825206AB31B062ED4FFF777
:1063A000B7FA044650B3037A43B34FF0FF334FF0CC
:1063B000FF3205F1380018F0FCFCE368B3B90126A0
:1063C00063692677A361637F83B1FFF711FB30B95F
:1063D00005F1380018F0EFFC6FF00B0070BD06748B
:1063E00084600673FFF7BCFAFFF7C0FA064818F09E
:1063F000E2FC0020F2E76FF01200EFE76FF015000B
:10640000ECE700BFCC2200200423002008B5084B95
:1064100093F824302BB1FFF77BFA28B101600020FC
:1064200008BD6FF01200FBE76FF01500F8E700BF42
:10643000CC220020014B1860704700BFCC22002006
:1064400008B5074B93F8243023B1FFF761FA20B168
:10645000406808BD6FF01200FBE76FF01500F8E729
:10646000CC220020044A1368C81A20F07F4003445D
:10647000136016F0C9BF00BF6C2500202DE9F8435A
:10648000860006F1804600F1500406F58836A40027
:10649000A4B204F180444FF48037D6F84035DFF8D9
:1064A0006C8021F07F4504F588348740D8F8049546
:1064B000A3EB090323F07F4329F07F42012BC6F8A9
:1064C000402502D113201DF0BAFF09F10202AB1AD8
:1064D00023F07F43B3F5000F88BF154600232360E8
:1064E0002368C8F8447325F07F43C6F84035D8F8D0
:1064F0000435994506D0EB1A023B23F07F43B3F5F0
:10650000000F01D8BDE8F8832B46CFE7001001400B
:1065100070B5154D154C00262B68002006B170BDD6
:10652000D4F80423D203FAD5D4F84021002AF6D0B7
:10653000C4F84061D4F840214FF48032C4F84823B5
:10654000D4F84015D4F80465721A22F07F42B2F5EF
:10655000000F88BF314601261BB16A682860984742
:10656000DAE72B60DBE700BF602500200010014068
:1065700038B50F4C00254FF48033C4F80855C4F8E3
:1065800004330C4B4FF40032C3F8802101212A461A
:10659000112000F001FA112000F0CCF90123064A85
:1065A000A360022023601360FFF732F9284638BD4C
:1065B0000010014000E100E068250020134AB0F11E
:1065C000FF3F14BF03461346013B002B1CDD9342E3
:1065D000A8BF13460E4AD2F804050E4A1168401AA5
:1065E00010F4000F20F07F4218BF00230132134443
:1065F000094A0A48106000205060044A934294BF40
:10660000C9188918FFF73ABF0023E3E7FFFF7F00AF
:10661000001001406C25002060250020656400000A
:10662000044BD3F80405044B1B68C01A20F07F40CC
:10663000704700BF001001406C250020014B186816
:10664000704700BF3C030020F0B5082289B018F065
:10665000CBFDCB6A03930B6B04934B6B05938B6B56
:106660000693CB6B079313466A460C4606460027F3
:1066700011461046CDE90177009718F0C2FC31466B
:106680000546304618F0BDFC216B0391616B049107
:10669000A16B0591E16B0544CDE906171046114643
:1066A00018F0AFFC31460544304618F0AAFC05440A
:1066B000206A0090606A0190A06A0290A06B069028
:1066C000E06B07903046CDE90477039718F099FC0A
:1066D0000544606A0090A06AD4F838C00190E06A6E
:1066E0000290CDF810C0606BD4F83CC00390CDE9A7
:1066F00005C0206A0790304618F083FC0544E06A24
:106700000090206B0190606B0290206A0690A06A56
:1067100007903046CDE90477039718F09BFD236B73
:106720000093636B0193A36B0293E36B0393636A20
:106730000693E36A07932D1A08233046CDE90477C0
:1067400018F088FD636B0093A36B0193E36B0293D6
:10675000236A0393636A0493A36ACDE90537236B25
:1067600007932D1A0823304618F074FDA36B00938D
:10677000E36BCDE90137636A0393A36A0493E36A89
:10678000CDE90537636B07932D1A0823304618F0BF
:1067900061FD2D1A10D40D4C35B908223146204622
:1067A00018F02EFD01280FD008232246314630462E
:1067B00018F050FD2D1AEFE7044A08233146304601
:1067C00018F01FFC2D18F8D409B0F0BDB84F020026
:1067D0000449431E0F3013F8012F8A5C1A7083425C
:1067E000F9D17047C3670200F0B5264E07460C4644
:1067F0000FCE8DB001AD0FC50FCE0FC596E80700C7
:1068000085E807003846002F38D0002C38D0381FD4
:106810002146024610344B780D781B0443EA056389
:10682000CD782B438D78043143EA05238C4242F81E
:10683000043FF0D1144C04218A07036916D1C3F335
:106840000742A55C1A0EA25C42EA0562C3F3072563
:10685000DBB2655DE35C42EA054242EA03220CAD2D
:1068600021F003032B4453F82C3C534050F8042FE1
:10687000013153402C290361DED101200DB0F0BD60
:106880002046FBE7944B0200C3670200094A0A490D
:1068900093680968D967094998674B6843F0805342
:1068A0004B60002383F31188BFF36F8F9368D86F19
:1068B000704700BF683B00204462020000ED00E02A
:1068C00012498A684FF030001044EFF3098C80E8D9
:1068D000F01F202080F31188BFF36F8F0C4F4FF013
:1068E00000664A6A8A603E60906F0023936780F377
:1068F000118804B5104600F05DFABDE8044002F1CD
:10690000300090E8F01F8CF309887047683B002046
:1069100004ED00E01EF0040F0CBFEFF30880EFF36E
:106920000980816911F8021C0229FFD001B519F014
:10693000BCFB01BD43B2002B08DB012200F01F00AD
:1069400002FA00F05B09024A42F82300704700BFD8
:1069500000E100E043B2002B0DDB01225B0900F0F7
:106960001F0002FA00F02033034A42F82300BFF36D
:106970004F8FBFF36F8F704700E100E0054B420976
:1069800000F01F0053F82220012303FA00F010400A
:10699000704700BF00E100E043B2002BA8BF03F145
:1069A000604301F10101B8BF064B4FEA4111ACBF92
:1069B00003F5614300F00F00C9B2B4BF195483F866
:1069C0000013704714ED00E008B572B6044B186A66
:1069D00018B100221A621DF027FA62B608BD00BF86
:1069E000683B002042F8203C009B42F81C3C0A49CE
:1069F000019B42F8183C029B42F8143C21F0010133
:106A00004FF0807342F8043C42F8081C0023203AFF
:106A100002658367704700BFF7D90100094A034642
:106A2000906870B113F1160F806E05D0A0F12002AE
:106A30009A4205D8834203D2814228BF0020704782
:106A400000207047683B002008B5094B98600D4650
:106A5000144600F0AFF9204685F30988002163B69B
:106A600081F31188BFF36F8F0022002316F0C3FF5C
:106A7000683B0020014910220A60704710ED00E0D9
:106A800072B6404080F31188BFF36F8FBFF34F8F12
:106A900030BF62B6BFF36F8F704700BF72B6494018
:106AA00081F3118820BF80F3118862B6704700BF60
:106AB00030BFFFF7FDBF00BF0E4A08B50E4B22F0F6
:106AC0007F029A60BFF34F8FBFF36F8FD3F8882098
:106AD00022F47002C3F88820EFF3148323F0040338
